{
  "address": "0x2D65b8a41013148C0d6386E783A587E0ba802fFC",
  "abi": [
    {
      "anonymous": false,
      "inputs": [
        {
          "indexed": true,
          "internalType": "address",
          "name": "sender",
          "type": "address"
        },
        {
          "indexed": true,
          "internalType": "string",
          "name": "paramName",
          "type": "string"
        },
        {
          "indexed": false,
          "internalType": "address",
          "name": "newValue",
          "type": "address"
        }
      ],
      "name": "ESetParamAddress",
      "type": "event"
    },
    {
      "anonymous": false,
      "inputs": [
        {
          "indexed": true,
          "internalType": "address",
          "name": "previousOwner",
          "type": "address"
        },
        {
          "indexed": true,
          "internalType": "address",
          "name": "newOwner",
          "type": "address"
        }
      ],
      "name": "OwnershipTransferred",
      "type": "event"
    },
    {
      "anonymous": false,
      "inputs": [
        {
          "indexed": true,
          "internalType": "bytes32",
          "name": "role",
          "type": "bytes32"
        },
        {
          "indexed": true,
          "internalType": "bytes32",
          "name": "previousAdminRole",
          "type": "bytes32"
        },
        {
          "indexed": true,
          "internalType": "bytes32",
          "name": "newAdminRole",
          "type": "bytes32"
        }
      ],
      "name": "RoleAdminChanged",
      "type": "event"
    },
    {
      "anonymous": false,
      "inputs": [
        {
          "indexed": true,
          "internalType": "bytes32",
          "name": "role",
          "type": "bytes32"
        },
        {
          "indexed": true,
          "internalType": "address",
          "name": "account",
          "type": "address"
        },
        {
          "indexed": true,
          "internalType": "address",
          "name": "sender",
          "type": "address"
        }
      ],
      "name": "RoleGranted",
      "type": "event"
    },
    {
      "anonymous": false,
      "inputs": [
        {
          "indexed": true,
          "internalType": "bytes32",
          "name": "role",
          "type": "bytes32"
        },
        {
          "indexed": true,
          "internalType": "address",
          "name": "account",
          "type": "address"
        },
        {
          "indexed": true,
          "internalType": "address",
          "name": "sender",
          "type": "address"
        }
      ],
      "name": "RoleRevoked",
      "type": "event"
    },
    {
      "inputs": [],
      "name": "DEFAULT_ADMIN_ROLE",
      "outputs": [
        {
          "internalType": "bytes32",
          "name": "",
          "type": "bytes32"
        }
      ],
      "stateMutability": "view",
      "type": "function"
    },
    {
      "inputs": [],
      "name": "aToken",
      "outputs": [
        {
          "internalType": "contract ERC20",
          "name": "",
          "type": "address"
        }
      ],
      "stateMutability": "view",
      "type": "function"
    },
    {
      "inputs": [],
      "name": "claimRewards",
      "outputs": [],
      "stateMutability": "nonpayable",
      "type": "function"
    },
    {
      "inputs": [
        {
          "internalType": "uint256",
          "name": "amount",
          "type": "uint256"
        }
      ],
      "name": "deposit",
      "outputs": [],
      "stateMutability": "nonpayable",
      "type": "function"
    },
    {
      "inputs": [
        {
          "internalType": "bytes32",
          "name": "role",
          "type": "bytes32"
        }
      ],
      "name": "getRoleAdmin",
      "outputs": [
        {
          "internalType": "bytes32",
          "name": "",
          "type": "bytes32"
        }
      ],
      "stateMutability": "view",
      "type": "function"
    },
    {
      "inputs": [
        {
          "internalType": "bytes32",
          "name": "role",
          "type": "bytes32"
        },
        {
          "internalType": "address",
          "name": "account",
          "type": "address"
        }
      ],
      "name": "grantRole",
      "outputs": [],
      "stateMutability": "nonpayable",
      "type": "function"
    },
    {
      "inputs": [
        {
          "internalType": "bytes32",
          "name": "role",
          "type": "bytes32"
        },
        {
          "internalType": "address",
          "name": "account",
          "type": "address"
        }
      ],
      "name": "hasRole",
      "outputs": [
        {
          "internalType": "bool",
          "name": "",
          "type": "bool"
        }
      ],
      "stateMutability": "view",
      "type": "function"
    },
    {
      "inputs": [],
      "name": "incomeIndex",
      "outputs": [
        {
          "internalType": "uint256",
          "name": "index",
          "type": "uint256"
        }
      ],
      "stateMutability": "nonpayable",
      "type": "function"
    },
    {
      "inputs": [
        {
          "internalType": "address",
          "name": "_provider",
          "type": "address"
        },
        {
          "internalType": "address",
          "name": "_aToken",
          "type": "address"
        },
        {
          "internalType": "address",
          "name": "_rewards",
          "type": "address"
        },
        {
          "internalType": "address",
          "name": "_rescuer",
          "type": "address"
        },
        {
          "internalType": "address",
          "name": "_stablecoin",
          "type": "address"
        }
      ],
      "name": "initialize",
      "outputs": [],
      "stateMutability": "nonpayable",
      "type": "function"
    },
    {
      "inputs": [],
      "name": "owner",
      "outputs": [
        {
          "internalType": "address",
          "name": "",
          "type": "address"
        }
      ],
      "stateMutability": "view",
      "type": "function"
    },
    {
      "inputs": [],
      "name": "provider",
      "outputs": [
        {
          "internalType": "contract ILendingPoolAddressesProvider",
          "name": "",
          "type": "address"
        }
      ],
      "stateMutability": "view",
      "type": "function"
    },
    {
      "inputs": [],
      "name": "renounceOwnership",
      "outputs": [],
      "stateMutability": "nonpayable",
      "type": "function"
    },
    {
      "inputs": [
        {
          "internalType": "bytes32",
          "name": "role",
          "type": "bytes32"
        },
        {
          "internalType": "address",
          "name": "account",
          "type": "address"
        }
      ],
      "name": "renounceRole",
      "outputs": [],
      "stateMutability": "nonpayable",
      "type": "function"
    },
    {
      "inputs": [
        {
          "internalType": "address",
          "name": "token",
          "type": "address"
        },
        {
          "internalType": "address",
          "name": "target",
          "type": "address"
        }
      ],
      "name": "rescue",
      "outputs": [],
      "stateMutability": "nonpayable",
      "type": "function"
    },
    {
      "inputs": [
        {
          "internalType": "bytes32",
          "name": "role",
          "type": "bytes32"
        },
        {
          "internalType": "address",
          "name": "account",
          "type": "address"
        }
      ],
      "name": "revokeRole",
      "outputs": [],
      "stateMutability": "nonpayable",
      "type": "function"
    },
    {
      "inputs": [],
      "name": "rewards",
      "outputs": [
        {
          "internalType": "address",
          "name": "",
          "type": "address"
        }
      ],
      "stateMutability": "view",
      "type": "function"
    },
    {
      "inputs": [
        {
          "internalType": "address",
          "name": "newValue",
          "type": "address"
        }
      ],
      "name": "setRewards",
      "outputs": [],
      "stateMutability": "nonpayable",
      "type": "function"
    },
    {
      "inputs": [],
      "name": "stablecoin",
      "outputs": [
        {
          "internalType": "contract ERC20",
          "name": "",
          "type": "address"
        }
      ],
      "stateMutability": "view",
      "type": "function"
    },
    {
      "inputs": [
        {
          "internalType": "bytes4",
          "name": "interfaceId",
          "type": "bytes4"
        }
      ],
      "name": "supportsInterface",
      "outputs": [
        {
          "internalType": "bool",
          "name": "",
          "type": "bool"
        }
      ],
      "stateMutability": "view",
      "type": "function"
    },
    {
      "inputs": [
        {
          "internalType": "uint256",
          "name": "currentIncomeIndex",
          "type": "uint256"
        }
      ],
      "name": "totalValue",
      "outputs": [
        {
          "internalType": "uint256",
          "name": "",
          "type": "uint256"
        }
      ],
      "stateMutability": "view",
      "type": "function"
    },
    {
      "inputs": [],
      "name": "totalValue",
      "outputs": [
        {
          "internalType": "uint256",
          "name": "",
          "type": "uint256"
        }
      ],
      "stateMutability": "nonpayable",
      "type": "function"
    },
    {
      "inputs": [
        {
          "internalType": "address",
          "name": "newOwner",
          "type": "address"
        }
      ],
      "name": "transferOwnership",
      "outputs": [],
      "stateMutability": "nonpayable",
      "type": "function"
    },
    {
      "inputs": [
        {
          "internalType": "uint256",
          "name": "amountInUnderlying",
          "type": "uint256"
        }
      ],
      "name": "withdraw",
      "outputs": [
        {
          "internalType": "uint256",
          "name": "actualAmountWithdrawn",
          "type": "uint256"
        }
      ],
      "stateMutability": "nonpayable",
      "type": "function"
    }
  ],
  "transactionHash": "0x175257d66f21ea84905f85aba43cae54f00943e402dc54dbc42c1a1fb0bace26",
  "args": [],
  "solcInputHash": "f44e6ff7c430306234e71ac921a32e05",
  "bytecode": "0x608060405234801561001057600080fd5b50611b3e806100206000396000f3fe608060405234801561001057600080fd5b506004361061014d5760003560e01c8063715018a6116100c3578063b6b55f251161007c578063b6b55f25146102ac578063d4c3eea0146102bf578063d547741f146102c7578063e9cbd822146102da578063ec38a862146102ed578063f2fde38b1461030057600080fd5b8063715018a6146102525780638da5cb5b1461025a57806391d148541461026b5780639ec5a8941461027e578063a0c1f15e14610291578063a217fddf146102a457600080fd5b80632e1a7d4d116101155780632e1a7d4d146101f35780632f2ff15d1461020657806336568abe14610219578063372500ab146101b85780634fdf5d1d1461022c578063579f07b01461023f57600080fd5b806301ffc9a714610152578063085d48831461017a5780631459457a146101a557806321c26120146101ba578063248a9ca3146101d0575b600080fd5b6101656101603660046118dc565b610313565b60405190151581526020015b60405180910390f35b60fb5461018d906001600160a01b031681565b6040516001600160a01b039091168152602001610171565b6101b86101b3366004611810565b61034a565b005b6101c26104c6565b604051908152602001610171565b6101c26101de3660046118a0565b600090815260c9602052604090206001015490565b6101c26102013660046118a0565b6104d5565b6101b86102143660046118b8565b610671565b6101b86102273660046118b8565b61069c565b6101b861023a3660046117d8565b61071c565b6101c261024d3660046118a0565b6107b6565b6101b86107c1565b6065546001600160a01b031661018d565b6101656102793660046118b8565b6107f5565b60fe5461018d906001600160a01b031681565b60fd5461018d906001600160a01b031681565b6101c2600081565b6101b86102ba3660046118a0565b610820565b6101c26109b8565b6101b86102d53660046118b8565b6109ca565b60fc5461018d906001600160a01b031681565b6101b86102fb3660046117a0565b6109f0565b6101b861030e3660046117a0565b610a1d565b60006001600160e01b03198216637965db0b60e01b148061034457506301ffc9a760e01b6001600160e01b03198316145b92915050565b603254610100900460ff1680610363575060325460ff16155b6103885760405162461bcd60e51b815260040161037f906119e0565b60405180910390fd5b603254610100900460ff161580156103aa576032805461ffff19166101011790555b6103b383610ab5565b6001600160a01b0386163b151580156103d557506001600160a01b0385163b15155b80156103e957506001600160a01b03841615155b80156103fe57506001600160a01b0382163b15155b6104625760405162461bcd60e51b815260206004820152602f60248201527f4d6f6f6c614d61726b65743a20416e20696e707574206164647265737320697360448201526e081b9bdd08184818dbdb9d1c9858dd608a1b606482015260840161037f565b60fb80546001600160a01b038089166001600160a01b03199283161790925560fc805485841690831617905560fd805488841690831617905560fe80549287169290911691909117905580156104be576032805461ff00191690555b505050505050565b60006104d0610b85565b905090565b6065546000906001600160a01b031633146105025760405162461bcd60e51b815260040161037f90611a2e565b6000821161055e5760405162461bcd60e51b8152602060048201526024808201527f4d6f6f6c614d61726b65743a20616d6f756e74496e556e6465726c79696e67206044820152630697320360e41b606482015260840161037f565b60fb5460408051630261bf8b60e01b815290516000926001600160a01b031691630261bf8b916004808301926020929190829003018186803b1580156105a357600080fd5b505afa1580156105b7573d6000803e3d6000fd5b505050506040513d601f19601f820116820180604052508101906105db91906117bc565b60fc54604051631a4ca37b60e21b81526001600160a01b039182166004820152602481018690523360448201529192508216906369328dec90606401602060405180830381600087803b15801561063157600080fd5b505af1158015610645573d6000803e3d6000fd5b505050506040513d601f19601f820116820180604052508101906106699190611904565b509192915050565b600082815260c9602052604090206001015461068d8133610cdc565b6106978383610d40565b505050565b6001600160a01b038116331461070c5760405162461bcd60e51b815260206004820152602f60248201527f416363657373436f6e74726f6c3a2063616e206f6e6c792072656e6f756e636560448201526e103937b632b9903337b91039b2b63360891b606482015260840161037f565b6107168282610dc6565b5050565b565b6107268282610e2d565b6040516370a0823160e01b815230600482015282906106979083906001600160a01b038416906370a082319060240160206040518083038186803b15801561076d57600080fd5b505afa158015610781573d6000803e3d6000fd5b505050506040513d601f19601f820116820180604052508101906107a59190611904565b6001600160a01b0384169190610e8d565b600061034482610ef0565b6065546001600160a01b031633146107eb5760405162461bcd60e51b815260040161037f90611a2e565b61071a6000610f6c565b600091825260c9602090815260408084206001600160a01b0393909316845291905290205460ff1690565b6065546001600160a01b0316331461084a5760405162461bcd60e51b815260040161037f90611a2e565b6000811161089a5760405162461bcd60e51b815260206004820152601860248201527f4d6f6f6c614d61726b65743a20616d6f756e7420697320300000000000000000604482015260640161037f565b60fb5460408051630261bf8b60e01b815290516000926001600160a01b031691630261bf8b916004808301926020929190829003018186803b1580156108df57600080fd5b505afa1580156108f3573d6000803e3d6000fd5b505050506040513d601f19601f8201168201806040525081019061091791906117bc565b60fc54909150610932906001600160a01b0316333085610fbe565b60fc54610949906001600160a01b03168284610ffc565b60fc5460405163e8eda9df60e01b81526001600160a01b03918216600482015260248101849052306044820152600060648201529082169063e8eda9df90608401600060405180830381600087803b1580156109a457600080fd5b505af11580156104be573d6000803e3d6000fd5b60006104d06109c5610b85565b610ef0565b600082815260c960205260409020600101546109e68133610cdc565b6106978383610dc6565b6065546001600160a01b03163314610a1a5760405162461bcd60e51b815260040161037f90611a2e565b50565b6065546001600160a01b03163314610a475760405162461bcd60e51b815260040161037f90611a2e565b6001600160a01b038116610aac5760405162461bcd60e51b815260206004820152602660248201527f4f776e61626c653a206e6577206f776e657220697320746865207a65726f206160448201526564647265737360d01b606482015260840161037f565b610a1a81610f6c565b603254610100900460ff1680610ace575060325460ff16155b610aea5760405162461bcd60e51b815260040161037f906119e0565b603254610100900460ff16158015610b0c576032805461ffff19166101011790555b610b146110ee565b610b1c611169565b610b467fcf6f9f892731e14b8859835f2ff35575f447fb501f46243c4eb8bac19e31a050836111d8565b610b707fcf6f9f892731e14b8859835f2ff35575f447fb501f46243c4eb8bac19e31a050806111e2565b8015610716576032805461ff00191690555050565b60008060fb60009054906101000a90046001600160a01b03166001600160a01b0316630261bf8b6040518163ffffffff1660e01b815260040160206040518083038186803b158015610bd657600080fd5b505afa158015610bea573d6000803e3d6000fd5b505050506040513d601f19601f82011682018060405250810190610c0e91906117bc565b60fc5460405163d15e005360e01b81526001600160a01b03918216600482015291925082169063d15e00539060240160206040518083038186803b158015610c5557600080fd5b505afa158015610c69573d6000803e3d6000fd5b505050506040513d601f19601f82011682018060405250810190610c8d9190611904565b915060008211610cd85760405162461bcd60e51b815260206004820152601660248201527509adeded8c29ac2e4d6cae87440848288be929c888ab60531b604482015260640161037f565b5090565b610ce682826107f5565b61071657610cfe816001600160a01b0316601461122d565b610d0983602061122d565b604051602001610d1a929190611938565b60408051601f198184030181529082905262461bcd60e51b825261037f916004016119ad565b610d4a82826107f5565b61071657600082815260c9602090815260408083206001600160a01b03851684529091529020805460ff19166001179055610d823390565b6001600160a01b0316816001600160a01b0316837f2f8788117e7eff1d82e926ec794901d17c78024a50270940304540a733656f0d60405160405180910390a45050565b610dd082826107f5565b1561071657600082815260c9602090815260408083206001600160a01b0385168085529252808320805460ff1916905551339285917ff6391f5c32d9c69d2a47ea670b442974b53935d1edc7fd64eb21e047a839171b9190a45050565b610e378282611416565b60fd546001600160a01b03838116911614156107165760405162461bcd60e51b8152602060048201526015602482015274135bdbdb1853585c9ad95d0e881b9bc81cdd19585b605a1b604482015260640161037f565b6040516001600160a01b03831660248201526044810182905261069790849063a9059cbb60e01b906064015b60408051601f198184030181529190526020810180516001600160e01b03166001600160e01b03199093169290921790915261148c565b60fd546040516370a0823160e01b81523060048201526000916001600160a01b0316906370a082319060240160206040518083038186803b158015610f3457600080fd5b505afa158015610f48573d6000803e3d6000fd5b505050506040513d601f19601f820116820180604052508101906103449190611904565b606580546001600160a01b038381166001600160a01b0319831681179093556040519116919082907f8be0079c531659141344cd1fd0a4f28419497f9722a3daafe3b4186f6b6457e090600090a35050565b6040516001600160a01b0380851660248301528316604482015260648101829052610ff69085906323b872dd60e01b90608401610eb9565b50505050565b604051636eb1769f60e11b81523060048201526001600160a01b0383811660248301526000919085169063dd62ed3e9060440160206040518083038186803b15801561104757600080fd5b505afa15801561105b573d6000803e3d6000fd5b505050506040513d601f19601f8201168201806040525081019061107f9190611904565b905080156110b7576040516001600160a01b0384166024820152600060448201526110b790859063095ea7b360e01b90606401610eb9565b610ff68463095ea7b360e01b856110ce8686611a63565b6040516001600160a01b0390921660248301526044820152606401610eb9565b603254610100900460ff1680611107575060325460ff16155b6111235760405162461bcd60e51b815260040161037f906119e0565b603254610100900460ff16158015611145576032805461ffff19166101011790555b61114d61155e565b6111556115c8565b8015610a1a576032805461ff001916905550565b603254610100900460ff1680611182575060325460ff16155b61119e5760405162461bcd60e51b815260040161037f906119e0565b603254610100900460ff161580156111c0576032805461ffff19166101011790555b6111c861155e565b6111d061155e565b61115561155e565b6107168282610d40565b600082815260c96020526040808220600101805490849055905190918391839186917fbd79b86ffe0ab8e8776151514217cd7cacd52c909f66475c3af44e129f0b00ff9190a4505050565b6060600061123c836002611a7b565b611247906002611a63565b67ffffffffffffffff81111561126d57634e487b7160e01b600052604160045260246000fd5b6040519080825280601f01601f191660200182016040528015611297576020820181803683370190505b509050600360fc1b816000815181106112c057634e487b7160e01b600052603260045260246000fd5b60200101906001600160f81b031916908160001a905350600f60fb1b816001815181106112fd57634e487b7160e01b600052603260045260246000fd5b60200101906001600160f81b031916908160001a9053506000611321846002611a7b565b61132c906001611a63565b90505b60018111156113c0576f181899199a1a9b1b9c1cb0b131b232b360811b85600f166010811061136e57634e487b7160e01b600052603260045260246000fd5b1a60f81b82828151811061139257634e487b7160e01b600052603260045260246000fd5b60200101906001600160f81b031916908160001a90535060049490941c936113b981611ac6565b905061132f565b50831561140f5760405162461bcd60e51b815260206004820181905260248201527f537472696e67733a20686578206c656e67746820696e73756666696369656e74604482015260640161037f565b9392505050565b6114407fcf6f9f892731e14b8859835f2ff35575f447fb501f46243c4eb8bac19e31a050336107f5565b6107165760405162461bcd60e51b815260206004820152601860248201527f4d6f6e65794d61726b65743a206e6f7420726573637565720000000000000000604482015260640161037f565b60006114e1826040518060400160405280602081526020017f5361666545524332303a206c6f772d6c6576656c2063616c6c206661696c6564815250856001600160a01b03166116289092919063ffffffff16565b80519091501561069757808060200190518101906114ff9190611880565b6106975760405162461bcd60e51b815260206004820152602a60248201527f5361666545524332303a204552433230206f7065726174696f6e20646964206e6044820152691bdd081cdd58d8d9595960b21b606482015260840161037f565b603254610100900460ff1680611577575060325460ff16155b6115935760405162461bcd60e51b815260040161037f906119e0565b603254610100900460ff16158015611155576032805461ffff19166101011790558015610a1a576032805461ff001916905550565b603254610100900460ff16806115e1575060325460ff16155b6115fd5760405162461bcd60e51b815260040161037f906119e0565b603254610100900460ff1615801561161f576032805461ffff19166101011790555b61115533610f6c565b6060611637848460008561163f565b949350505050565b6060824710156116a05760405162461bcd60e51b815260206004820152602660248201527f416464726573733a20696e73756666696369656e742062616c616e636520666f6044820152651c8818d85b1b60d21b606482015260840161037f565b843b6116ee5760405162461bcd60e51b815260206004820152601d60248201527f416464726573733a2063616c6c20746f206e6f6e2d636f6e7472616374000000604482015260640161037f565b600080866001600160a01b0316858760405161170a919061191c565b60006040518083038185875af1925050503d8060008114611747576040519150601f19603f3d011682016040523d82523d6000602084013e61174c565b606091505b509150915061175c828286611767565b979650505050505050565b6060831561177657508161140f565b8251156117865782518084602001fd5b8160405162461bcd60e51b815260040161037f91906119ad565b6000602082840312156117b1578081fd5b813561140f81611af3565b6000602082840312156117cd578081fd5b815161140f81611af3565b600080604083850312156117ea578081fd5b82356117f581611af3565b9150602083013561180581611af3565b809150509250929050565b600080600080600060a08688031215611827578081fd5b853561183281611af3565b9450602086013561184281611af3565b9350604086013561185281611af3565b9250606086013561186281611af3565b9150608086013561187281611af3565b809150509295509295909350565b600060208284031215611891578081fd5b8151801515811461140f578182fd5b6000602082840312156118b1578081fd5b5035919050565b600080604083850312156118ca578182fd5b82359150602083013561180581611af3565b6000602082840312156118ed578081fd5b81356001600160e01b03198116811461140f578182fd5b600060208284031215611915578081fd5b5051919050565b6000825161192e818460208701611a9a565b9190910192915050565b7f416363657373436f6e74726f6c3a206163636f756e7420000000000000000000815260008351611970816017850160208801611a9a565b7001034b99036b4b9b9b4b733903937b6329607d1b60179184019182015283516119a1816028840160208801611a9a565b01602801949350505050565b60208152600082518060208401526119cc816040850160208701611a9a565b601f01601f19169190910160400192915050565b6020808252602e908201527f496e697469616c697a61626c653a20636f6e747261637420697320616c72656160408201526d191e481a5b9a5d1a585b1a5e995960921b606082015260800190565b6020808252818101527f4f776e61626c653a2063616c6c6572206973206e6f7420746865206f776e6572604082015260600190565b60008219821115611a7657611a76611add565b500190565b6000816000190483118215151615611a9557611a95611add565b500290565b60005b83811015611ab5578181015183820152602001611a9d565b83811115610ff65750506000910152565b600081611ad557611ad5611add565b506000190190565b634e487b7160e01b600052601160045260246000fd5b6001600160a01b0381168114610a1a57600080fdfea26469706673582212204ab74d54d265bcfdc0c4ab4993d8cc8292cfffb356eb0621066f2ec45785723564736f6c63430008040033",
  "devdoc": {
    "kind": "dev",
    "methods": {
      "getRoleAdmin(bytes32)": {
        "details": "Returns the admin role that controls `role`. See {grantRole} and {revokeRole}. To change a role's admin, use {_setRoleAdmin}."
      },
      "grantRole(bytes32,address)": {
        "details": "Grants `role` to `account`. If `account` had not been already granted `role`, emits a {RoleGranted} event. Requirements: - the caller must have ``role``'s admin role."
      },
      "hasRole(bytes32,address)": {
        "details": "Returns `true` if `account` has been granted `role`."
      },
      "owner()": {
        "details": "Returns the address of the current owner."
      },
      "renounceOwnership()": {
        "details": "Leaves the contract without owner. It will not be possible to call `onlyOwner` functions anymore. Can only be called by the current owner. NOTE: Renouncing ownership will leave the contract without an owner, thereby removing any functionality that is only available to the owner."
      },
      "renounceRole(bytes32,address)": {
        "details": "Revokes `role` from the calling account. Roles are often managed via {grantRole} and {revokeRole}: this function's purpose is to provide a mechanism for accounts to lose their privileges if they are compromised (such as when a trusted device is misplaced). If the calling account had been granted `role`, emits a {RoleRevoked} event. Requirements: - the caller must be `account`."
      },
      "rescue(address,address)": {
        "details": "Need to implement {_authorizeRescue} to do access-control for this function.",
        "params": {
          "target": "The address to send the tokens to",
          "token": "The ERC20 token to rescue"
        }
      },
      "revokeRole(bytes32,address)": {
        "details": "Revokes `role` from `account`. If `account` had been granted `role`, emits a {RoleRevoked} event. Requirements: - the caller must have ``role``'s admin role."
      },
      "supportsInterface(bytes4)": {
        "details": "See {IERC165-supportsInterface}."
      },
      "transferOwnership(address)": {
        "details": "Transfers ownership of the contract to a new account (`newOwner`). Can only be called by the current owner."
      }
    },
    "version": 1
  },
  "userdoc": {
    "kind": "user",
    "methods": {
      "incomeIndex()": {
        "notice": "Used for calculating the interest generated (e.g. cDai's price for the Compound market)"
      },
      "rescue(address,address)": {
        "notice": "Rescues ERC20 tokens sent to the contract in error."
      },
      "setRewards(address)": {
        "notice": "Param setters"
      },
      "totalValue()": {
        "notice": "The total value locked in the money market, in terms of the underlying stablecoin"
      },
      "totalValue(uint256)": {
        "notice": "The total value locked in the money market, in terms of the underlying stablecoin"
      }
    },
    "version": 1
  },
  "storageLayout": {
    "storage": [
      {
        "astId": 16082,
        "contract": "contracts/moneymarkets/moola/MoolaMarket.sol:MoolaMarket",
        "label": "__gap",
        "offset": 0,
        "slot": "0",
        "type": "t_array(t_uint256)50_storage"
      },
      {
        "astId": 618,
        "contract": "contracts/moneymarkets/moola/MoolaMarket.sol:MoolaMarket",
        "label": "_initialized",
        "offset": 0,
        "slot": "50",
        "type": "t_bool"
      },
      {
        "astId": 621,
        "contract": "contracts/moneymarkets/moola/MoolaMarket.sol:MoolaMarket",
        "label": "_initializing",
        "offset": 1,
        "slot": "50",
        "type": "t_bool"
      },
      {
        "astId": 3221,
        "contract": "contracts/moneymarkets/moola/MoolaMarket.sol:MoolaMarket",
        "label": "__gap",
        "offset": 0,
        "slot": "51",
        "type": "t_array(t_uint256)50_storage"
      },
      {
        "astId": 418,
        "contract": "contracts/moneymarkets/moola/MoolaMarket.sol:MoolaMarket",
        "label": "_owner",
        "offset": 0,
        "slot": "101",
        "type": "t_address"
      },
      {
        "astId": 531,
        "contract": "contracts/moneymarkets/moola/MoolaMarket.sol:MoolaMarket",
        "label": "__gap",
        "offset": 0,
        "slot": "102",
        "type": "t_array(t_uint256)49_storage"
      },
      {
        "astId": 3581,
        "contract": "contracts/moneymarkets/moola/MoolaMarket.sol:MoolaMarket",
        "label": "__gap",
        "offset": 0,
        "slot": "151",
        "type": "t_array(t_uint256)50_storage"
      },
      {
        "astId": 48,
        "contract": "contracts/moneymarkets/moola/MoolaMarket.sol:MoolaMarket",
        "label": "_roles",
        "offset": 0,
        "slot": "201",
        "type": "t_mapping(t_bytes32,t_struct(RoleData)43_storage)"
      },
      {
        "astId": 333,
        "contract": "contracts/moneymarkets/moola/MoolaMarket.sol:MoolaMarket",
        "label": "__gap",
        "offset": 0,
        "slot": "202",
        "type": "t_array(t_uint256)49_storage"
      },
      {
        "astId": 23538,
        "contract": "contracts/moneymarkets/moola/MoolaMarket.sol:MoolaMarket",
        "label": "provider",
        "offset": 0,
        "slot": "251",
        "type": "t_contract(ILendingPoolAddressesProvider)23855"
      },
      {
        "astId": 23542,
        "contract": "contracts/moneymarkets/moola/MoolaMarket.sol:MoolaMarket",
        "label": "stablecoin",
        "offset": 0,
        "slot": "252",
        "type": "t_contract(ERC20)4880"
      },
      {
        "astId": 23545,
        "contract": "contracts/moneymarkets/moola/MoolaMarket.sol:MoolaMarket",
        "label": "aToken",
        "offset": 0,
        "slot": "253",
        "type": "t_contract(ERC20)4880"
      },
      {
        "astId": 23547,
        "contract": "contracts/moneymarkets/moola/MoolaMarket.sol:MoolaMarket",
        "label": "rewards",
        "offset": 0,
        "slot": "254",
        "type": "t_address"
      },
      {
        "astId": 23810,
        "contract": "contracts/moneymarkets/moola/MoolaMarket.sol:MoolaMarket",
        "label": "__gap",
        "offset": 0,
        "slot": "255",
        "type": "t_array(t_uint256)45_storage"
      }
    ],
    "types": {
      "t_address": {
        "encoding": "inplace",
        "label": "address",
        "numberOfBytes": "20"
      },
      "t_array(t_uint256)45_storage": {
        "base": "t_uint256",
        "encoding": "inplace",
        "label": "uint256[45]",
        "numberOfBytes": "1440"
      },
      "t_array(t_uint256)49_storage": {
        "base": "t_uint256",
        "encoding": "inplace",
        "label": "uint256[49]",
        "numberOfBytes": "1568"
      },
      "t_array(t_uint256)50_storage": {
        "base": "t_uint256",
        "encoding": "inplace",
        "label": "uint256[50]",
        "numberOfBytes": "1600"
      },
      "t_bool": {
        "encoding": "inplace",
        "label": "bool",
        "numberOfBytes": "1"
      },
      "t_bytes32": {
        "encoding": "inplace",
        "label": "bytes32",
        "numberOfBytes": "32"
      },
      "t_contract(ERC20)4880": {
        "encoding": "inplace",
        "label": "contract ERC20",
        "numberOfBytes": "20"
      },
      "t_contract(ILendingPoolAddressesProvider)23855": {
        "encoding": "inplace",
        "label": "contract ILendingPoolAddressesProvider",
        "numberOfBytes": "20"
      },
      "t_mapping(t_address,t_bool)": {
        "encoding": "mapping",
        "key": "t_address",
        "label": "mapping(address => bool)",
        "numberOfBytes": "32",
        "value": "t_bool"
      },
      "t_mapping(t_bytes32,t_struct(RoleData)43_storage)": {
        "encoding": "mapping",
        "key": "t_bytes32",
        "label": "mapping(bytes32 => struct AccessControlUpgradeable.RoleData)",
        "numberOfBytes": "32",
        "value": "t_struct(RoleData)43_storage"
      },
      "t_struct(RoleData)43_storage": {
        "encoding": "inplace",
        "label": "struct AccessControlUpgradeable.RoleData",
        "members": [
          {
            "astId": 40,
            "contract": "contracts/moneymarkets/moola/MoolaMarket.sol:MoolaMarket",
            "label": "members",
            "offset": 0,
            "slot": "0",
            "type": "t_mapping(t_address,t_bool)"
          },
          {
            "astId": 42,
            "contract": "contracts/moneymarkets/moola/MoolaMarket.sol:MoolaMarket",
            "label": "adminRole",
            "offset": 0,
            "slot": "1",
            "type": "t_bytes32"
          }
        ],
        "numberOfBytes": "64"
      },
      "t_uint256": {
        "encoding": "inplace",
        "label": "uint256",
        "numberOfBytes": "32"
      }
    }
  }
}