{
  "address": "0x3B732193098C5df5FD47667D19Abf90b8040EcEe",
  "abi": [
    {
      "anonymous": false,
      "inputs": [
        {
          "indexed": true,
          "internalType": "address",
          "name": "account",
          "type": "address"
        },
        {
          "indexed": true,
          "internalType": "address",
          "name": "operator",
          "type": "address"
        },
        {
          "indexed": false,
          "internalType": "bool",
          "name": "approved",
          "type": "bool"
        }
      ],
      "name": "ApprovalForAll",
      "type": "event"
    },
    {
      "anonymous": false,
      "inputs": [
        {
          "indexed": true,
          "internalType": "uint256",
          "name": "tokenID",
          "type": "uint256"
        },
        {
          "indexed": true,
          "internalType": "address",
          "name": "to",
          "type": "address"
        },
        {
          "indexed": true,
          "internalType": "address",
          "name": "dividendToken",
          "type": "address"
        },
        {
          "indexed": false,
          "internalType": "uint256",
          "name": "weiAmount",
          "type": "uint256"
        }
      ],
      "name": "DividendWithdrawn",
      "type": "event"
    },
    {
      "anonymous": false,
      "inputs": [
        {
          "indexed": true,
          "internalType": "uint256",
          "name": "tokenID",
          "type": "uint256"
        },
        {
          "indexed": true,
          "internalType": "address",
          "name": "from",
          "type": "address"
        },
        {
          "indexed": true,
          "internalType": "address",
          "name": "dividendToken",
          "type": "address"
        },
        {
          "indexed": false,
          "internalType": "uint256",
          "name": "weiAmount",
          "type": "uint256"
        }
      ],
      "name": "DividendsDistributed",
      "type": "event"
    },
    {
      "anonymous": false,
      "inputs": [
        {
          "indexed": true,
          "internalType": "bytes32",
          "name": "role",
          "type": "bytes32"
        },
        {
          "indexed": true,
          "internalType": "bytes32",
          "name": "previousAdminRole",
          "type": "bytes32"
        },
        {
          "indexed": true,
          "internalType": "bytes32",
          "name": "newAdminRole",
          "type": "bytes32"
        }
      ],
      "name": "RoleAdminChanged",
      "type": "event"
    },
    {
      "anonymous": false,
      "inputs": [
        {
          "indexed": true,
          "internalType": "bytes32",
          "name": "role",
          "type": "bytes32"
        },
        {
          "indexed": true,
          "internalType": "address",
          "name": "account",
          "type": "address"
        },
        {
          "indexed": true,
          "internalType": "address",
          "name": "sender",
          "type": "address"
        }
      ],
      "name": "RoleGranted",
      "type": "event"
    },
    {
      "anonymous": false,
      "inputs": [
        {
          "indexed": true,
          "internalType": "bytes32",
          "name": "role",
          "type": "bytes32"
        },
        {
          "indexed": true,
          "internalType": "address",
          "name": "account",
          "type": "address"
        },
        {
          "indexed": true,
          "internalType": "address",
          "name": "sender",
          "type": "address"
        }
      ],
      "name": "RoleRevoked",
      "type": "event"
    },
    {
      "anonymous": false,
      "inputs": [
        {
          "indexed": true,
          "internalType": "address",
          "name": "operator",
          "type": "address"
        },
        {
          "indexed": true,
          "internalType": "address",
          "name": "from",
          "type": "address"
        },
        {
          "indexed": true,
          "internalType": "address",
          "name": "to",
          "type": "address"
        },
        {
          "indexed": false,
          "internalType": "uint256[]",
          "name": "ids",
          "type": "uint256[]"
        },
        {
          "indexed": false,
          "internalType": "uint256[]",
          "name": "values",
          "type": "uint256[]"
        }
      ],
      "name": "TransferBatch",
      "type": "event"
    },
    {
      "anonymous": false,
      "inputs": [
        {
          "indexed": true,
          "internalType": "address",
          "name": "operator",
          "type": "address"
        },
        {
          "indexed": true,
          "internalType": "address",
          "name": "from",
          "type": "address"
        },
        {
          "indexed": true,
          "internalType": "address",
          "name": "to",
          "type": "address"
        },
        {
          "indexed": false,
          "internalType": "uint256",
          "name": "id",
          "type": "uint256"
        },
        {
          "indexed": false,
          "internalType": "uint256",
          "name": "value",
          "type": "uint256"
        }
      ],
      "name": "TransferSingle",
      "type": "event"
    },
    {
      "anonymous": false,
      "inputs": [
        {
          "indexed": false,
          "internalType": "string",
          "name": "value",
          "type": "string"
        },
        {
          "indexed": true,
          "internalType": "uint256",
          "name": "id",
          "type": "uint256"
        }
      ],
      "name": "URI",
      "type": "event"
    },
    {
      "inputs": [],
      "name": "DEFAULT_ADMIN_ROLE",
      "outputs": [
        {
          "internalType": "bytes32",
          "name": "",
          "type": "bytes32"
        }
      ],
      "stateMutability": "view",
      "type": "function"
    },
    {
      "inputs": [],
      "name": "DIVIDEND_ROLE",
      "outputs": [
        {
          "internalType": "bytes32",
          "name": "",
          "type": "bytes32"
        }
      ],
      "stateMutability": "view",
      "type": "function"
    },
    {
      "inputs": [],
      "name": "METADATA_ROLE",
      "outputs": [
        {
          "internalType": "bytes32",
          "name": "",
          "type": "bytes32"
        }
      ],
      "stateMutability": "view",
      "type": "function"
    },
    {
      "inputs": [],
      "name": "MINTER_BURNER_ROLE",
      "outputs": [
        {
          "internalType": "bytes32",
          "name": "",
          "type": "bytes32"
        }
      ],
      "stateMutability": "view",
      "type": "function"
    },
    {
      "inputs": [
        {
          "internalType": "uint256",
          "name": "tokenID",
          "type": "uint256"
        },
        {
          "internalType": "address",
          "name": "dividendToken",
          "type": "address"
        },
        {
          "internalType": "address",
          "name": "_owner",
          "type": "address"
        }
      ],
      "name": "accumulativeDividendOf",
      "outputs": [
        {
          "internalType": "uint256",
          "name": "",
          "type": "uint256"
        }
      ],
      "stateMutability": "view",
      "type": "function"
    },
    {
      "inputs": [
        {
          "internalType": "address",
          "name": "account",
          "type": "address"
        },
        {
          "internalType": "uint256",
          "name": "id",
          "type": "uint256"
        }
      ],
      "name": "balanceOf",
      "outputs": [
        {
          "internalType": "uint256",
          "name": "",
          "type": "uint256"
        }
      ],
      "stateMutability": "view",
      "type": "function"
    },
    {
      "inputs": [
        {
          "internalType": "address[]",
          "name": "accounts",
          "type": "address[]"
        },
        {
          "internalType": "uint256[]",
          "name": "ids",
          "type": "uint256[]"
        }
      ],
      "name": "balanceOfBatch",
      "outputs": [
        {
          "internalType": "uint256[]",
          "name": "",
          "type": "uint256[]"
        }
      ],
      "stateMutability": "view",
      "type": "function"
    },
    {
      "inputs": [],
      "name": "baseName",
      "outputs": [
        {
          "internalType": "string",
          "name": "",
          "type": "string"
        }
      ],
      "stateMutability": "view",
      "type": "function"
    },
    {
      "inputs": [],
      "name": "baseSymbol",
      "outputs": [
        {
          "internalType": "string",
          "name": "",
          "type": "string"
        }
      ],
      "stateMutability": "view",
      "type": "function"
    },
    {
      "inputs": [
        {
          "internalType": "address",
          "name": "account",
          "type": "address"
        },
        {
          "internalType": "uint256",
          "name": "id",
          "type": "uint256"
        },
        {
          "internalType": "uint256",
          "name": "amount",
          "type": "uint256"
        }
      ],
      "name": "burn",
      "outputs": [],
      "stateMutability": "nonpayable",
      "type": "function"
    },
    {
      "inputs": [
        {
          "internalType": "address",
          "name": "account",
          "type": "address"
        },
        {
          "internalType": "uint256[]",
          "name": "ids",
          "type": "uint256[]"
        },
        {
          "internalType": "uint256[]",
          "name": "amounts",
          "type": "uint256[]"
        }
      ],
      "name": "burnBatch",
      "outputs": [],
      "stateMutability": "nonpayable",
      "type": "function"
    },
    {
      "inputs": [],
      "name": "decimals",
      "outputs": [
        {
          "internalType": "uint8",
          "name": "",
          "type": "uint8"
        }
      ],
      "stateMutability": "view",
      "type": "function"
    },
    {
      "inputs": [
        {
          "internalType": "uint256",
          "name": "tokenID",
          "type": "uint256"
        }
      ],
      "name": "deployWrapper",
      "outputs": [
        {
          "internalType": "address",
          "name": "wrapperAddress",
          "type": "address"
        }
      ],
      "stateMutability": "nonpayable",
      "type": "function"
    },
    {
      "inputs": [],
      "name": "deployWrapperOnMint",
      "outputs": [
        {
          "internalType": "bool",
          "name": "",
          "type": "bool"
        }
      ],
      "stateMutability": "view",
      "type": "function"
    },
    {
      "inputs": [
        {
          "internalType": "uint256",
          "name": "tokenID",
          "type": "uint256"
        },
        {
          "internalType": "address",
          "name": "dividendToken",
          "type": "address"
        },
        {
          "internalType": "uint256",
          "name": "amount",
          "type": "uint256"
        }
      ],
      "name": "distributeDividends",
      "outputs": [],
      "stateMutability": "nonpayable",
      "type": "function"
    },
    {
      "inputs": [
        {
          "internalType": "uint256",
          "name": "tokenID",
          "type": "uint256"
        },
        {
          "internalType": "address",
          "name": "dividendToken",
          "type": "address"
        },
        {
          "internalType": "address",
          "name": "_owner",
          "type": "address"
        }
      ],
      "name": "dividendOf",
      "outputs": [
        {
          "internalType": "uint256",
          "name": "",
          "type": "uint256"
        }
      ],
      "stateMutability": "view",
      "type": "function"
    },
    {
      "inputs": [
        {
          "internalType": "uint256",
          "name": "",
          "type": "uint256"
        }
      ],
      "name": "dividendTokenDataList",
      "outputs": [
        {
          "internalType": "address",
          "name": "dividendToken",
          "type": "address"
        }
      ],
      "stateMutability": "view",
      "type": "function"
    },
    {
      "inputs": [],
      "name": "dividendTokenDataListLength",
      "outputs": [
        {
          "internalType": "uint256",
          "name": "",
          "type": "uint256"
        }
      ],
      "stateMutability": "view",
      "type": "function"
    },
    {
      "inputs": [
        {
          "internalType": "address",
          "name": "",
          "type": "address"
        }
      ],
      "name": "dividendTokenToDataID",
      "outputs": [
        {
          "internalType": "uint256",
          "name": "",
          "type": "uint256"
        }
      ],
      "stateMutability": "view",
      "type": "function"
    },
    {
      "inputs": [
        {
          "internalType": "bytes32",
          "name": "role",
          "type": "bytes32"
        }
      ],
      "name": "getRoleAdmin",
      "outputs": [
        {
          "internalType": "bytes32",
          "name": "",
          "type": "bytes32"
        }
      ],
      "stateMutability": "view",
      "type": "function"
    },
    {
      "inputs": [
        {
          "internalType": "bytes32",
          "name": "role",
          "type": "bytes32"
        },
        {
          "internalType": "address",
          "name": "account",
          "type": "address"
        }
      ],
      "name": "grantRole",
      "outputs": [],
      "stateMutability": "nonpayable",
      "type": "function"
    },
    {
      "inputs": [
        {
          "internalType": "bytes32",
          "name": "role",
          "type": "bytes32"
        },
        {
          "internalType": "address",
          "name": "account",
          "type": "address"
        }
      ],
      "name": "hasRole",
      "outputs": [
        {
          "internalType": "bool",
          "name": "",
          "type": "bool"
        }
      ],
      "stateMutability": "view",
      "type": "function"
    },
    {
      "inputs": [
        {
          "internalType": "address",
          "name": "admin",
          "type": "address"
        },
        {
          "internalType": "string",
          "name": "uri",
          "type": "string"
        },
        {
          "internalType": "address[]",
          "name": "dividendTokens",
          "type": "address[]"
        },
        {
          "internalType": "address",
          "name": "_wrapperTemplate",
          "type": "address"
        },
        {
          "internalType": "bool",
          "name": "_deployWrapperOnMint",
          "type": "bool"
        },
        {
          "internalType": "string",
          "name": "_baseName",
          "type": "string"
        },
        {
          "internalType": "string",
          "name": "_baseSymbol",
          "type": "string"
        },
        {
          "internalType": "uint8",
          "name": "_decimals",
          "type": "uint8"
        }
      ],
      "name": "initialize",
      "outputs": [],
      "stateMutability": "nonpayable",
      "type": "function"
    },
    {
      "inputs": [
        {
          "internalType": "address",
          "name": "account",
          "type": "address"
        },
        {
          "internalType": "address",
          "name": "operator",
          "type": "address"
        }
      ],
      "name": "isApprovedForAll",
      "outputs": [
        {
          "internalType": "bool",
          "name": "",
          "type": "bool"
        }
      ],
      "stateMutability": "view",
      "type": "function"
    },
    {
      "inputs": [
        {
          "internalType": "address",
          "name": "to",
          "type": "address"
        },
        {
          "internalType": "uint256",
          "name": "id",
          "type": "uint256"
        },
        {
          "internalType": "uint256",
          "name": "amount",
          "type": "uint256"
        }
      ],
      "name": "mint",
      "outputs": [],
      "stateMutability": "nonpayable",
      "type": "function"
    },
    {
      "inputs": [
        {
          "internalType": "address",
          "name": "to",
          "type": "address"
        },
        {
          "internalType": "uint256[]",
          "name": "ids",
          "type": "uint256[]"
        },
        {
          "internalType": "uint256[]",
          "name": "amounts",
          "type": "uint256[]"
        }
      ],
      "name": "mintBatch",
      "outputs": [],
      "stateMutability": "nonpayable",
      "type": "function"
    },
    {
      "inputs": [
        {
          "internalType": "address",
          "name": "dividendToken",
          "type": "address"
        }
      ],
      "name": "registerDividendToken",
      "outputs": [],
      "stateMutability": "nonpayable",
      "type": "function"
    },
    {
      "inputs": [
        {
          "internalType": "bytes32",
          "name": "role",
          "type": "bytes32"
        },
        {
          "internalType": "address",
          "name": "account",
          "type": "address"
        }
      ],
      "name": "renounceRole",
      "outputs": [],
      "stateMutability": "nonpayable",
      "type": "function"
    },
    {
      "inputs": [
        {
          "internalType": "bytes32",
          "name": "role",
          "type": "bytes32"
        },
        {
          "internalType": "address",
          "name": "account",
          "type": "address"
        }
      ],
      "name": "revokeRole",
      "outputs": [],
      "stateMutability": "nonpayable",
      "type": "function"
    },
    {
      "inputs": [
        {
          "internalType": "address",
          "name": "from",
          "type": "address"
        },
        {
          "internalType": "address",
          "name": "to",
          "type": "address"
        },
        {
          "internalType": "uint256[]",
          "name": "ids",
          "type": "uint256[]"
        },
        {
          "internalType": "uint256[]",
          "name": "amounts",
          "type": "uint256[]"
        },
        {
          "internalType": "bytes",
          "name": "data",
          "type": "bytes"
        }
      ],
      "name": "safeBatchTransferFrom",
      "outputs": [],
      "stateMutability": "nonpayable",
      "type": "function"
    },
    {
      "inputs": [
        {
          "internalType": "address",
          "name": "from",
          "type": "address"
        },
        {
          "internalType": "address",
          "name": "to",
          "type": "address"
        },
        {
          "internalType": "uint256",
          "name": "id",
          "type": "uint256"
        },
        {
          "internalType": "uint256",
          "name": "amount",
          "type": "uint256"
        },
        {
          "internalType": "bytes",
          "name": "data",
          "type": "bytes"
        }
      ],
      "name": "safeTransferFrom",
      "outputs": [],
      "stateMutability": "nonpayable",
      "type": "function"
    },
    {
      "inputs": [
        {
          "internalType": "address",
          "name": "operator",
          "type": "address"
        },
        {
          "internalType": "bool",
          "name": "approved",
          "type": "bool"
        }
      ],
      "name": "setApprovalForAll",
      "outputs": [],
      "stateMutability": "nonpayable",
      "type": "function"
    },
    {
      "inputs": [
        {
          "internalType": "string",
          "name": "newValue",
          "type": "string"
        }
      ],
      "name": "setBaseName",
      "outputs": [],
      "stateMutability": "nonpayable",
      "type": "function"
    },
    {
      "inputs": [
        {
          "internalType": "string",
          "name": "newValue",
          "type": "string"
        }
      ],
      "name": "setBaseSymbol",
      "outputs": [],
      "stateMutability": "nonpayable",
      "type": "function"
    },
    {
      "inputs": [
        {
          "internalType": "bool",
          "name": "newValue",
          "type": "bool"
        }
      ],
      "name": "setDeployWrapperOnMint",
      "outputs": [],
      "stateMutability": "nonpayable",
      "type": "function"
    },
    {
      "inputs": [
        {
          "internalType": "string",
          "name": "newuri",
          "type": "string"
        }
      ],
      "name": "setURI",
      "outputs": [],
      "stateMutability": "nonpayable",
      "type": "function"
    },
    {
      "inputs": [
        {
          "internalType": "bytes4",
          "name": "interfaceId",
          "type": "bytes4"
        }
      ],
      "name": "supportsInterface",
      "outputs": [
        {
          "internalType": "bool",
          "name": "",
          "type": "bool"
        }
      ],
      "stateMutability": "view",
      "type": "function"
    },
    {
      "inputs": [
        {
          "internalType": "uint256",
          "name": "",
          "type": "uint256"
        }
      ],
      "name": "tokenIDToWrapper",
      "outputs": [
        {
          "internalType": "address",
          "name": "",
          "type": "address"
        }
      ],
      "stateMutability": "view",
      "type": "function"
    },
    {
      "inputs": [
        {
          "internalType": "uint256",
          "name": "id",
          "type": "uint256"
        }
      ],
      "name": "totalSupply",
      "outputs": [
        {
          "internalType": "uint256",
          "name": "",
          "type": "uint256"
        }
      ],
      "stateMutability": "view",
      "type": "function"
    },
    {
      "inputs": [
        {
          "internalType": "uint256[]",
          "name": "ids",
          "type": "uint256[]"
        }
      ],
      "name": "totalSupplyBatch",
      "outputs": [
        {
          "internalType": "uint256[]",
          "name": "totalSupplies",
          "type": "uint256[]"
        }
      ],
      "stateMutability": "view",
      "type": "function"
    },
    {
      "inputs": [
        {
          "internalType": "uint256",
          "name": "",
          "type": "uint256"
        }
      ],
      "name": "uri",
      "outputs": [
        {
          "internalType": "string",
          "name": "",
          "type": "string"
        }
      ],
      "stateMutability": "view",
      "type": "function"
    },
    {
      "inputs": [
        {
          "internalType": "uint256",
          "name": "tokenID",
          "type": "uint256"
        },
        {
          "internalType": "address",
          "name": "dividendToken",
          "type": "address"
        }
      ],
      "name": "withdrawDividend",
      "outputs": [],
      "stateMutability": "nonpayable",
      "type": "function"
    },
    {
      "inputs": [
        {
          "internalType": "uint256",
          "name": "tokenID",
          "type": "uint256"
        },
        {
          "internalType": "address",
          "name": "dividendToken",
          "type": "address"
        },
        {
          "internalType": "address",
          "name": "user",
          "type": "address"
        }
      ],
      "name": "withdrawDividendFor",
      "outputs": [],
      "stateMutability": "nonpayable",
      "type": "function"
    },
    {
      "inputs": [
        {
          "internalType": "uint256",
          "name": "tokenID",
          "type": "uint256"
        },
        {
          "internalType": "address",
          "name": "dividendToken",
          "type": "address"
        },
        {
          "internalType": "address",
          "name": "_owner",
          "type": "address"
        }
      ],
      "name": "withdrawnDividendOf",
      "outputs": [
        {
          "internalType": "uint256",
          "name": "",
          "type": "uint256"
        }
      ],
      "stateMutability": "view",
      "type": "function"
    },
    {
      "inputs": [],
      "name": "wrapperTemplate",
      "outputs": [
        {
          "internalType": "address",
          "name": "",
          "type": "address"
        }
      ],
      "stateMutability": "view",
      "type": "function"
    },
    {
      "inputs": [
        {
          "internalType": "address",
          "name": "from",
          "type": "address"
        },
        {
          "internalType": "address",
          "name": "to",
          "type": "address"
        },
        {
          "internalType": "uint256",
          "name": "tokenID",
          "type": "uint256"
        },
        {
          "internalType": "uint256",
          "name": "amount",
          "type": "uint256"
        }
      ],
      "name": "wrapperTransfer",
      "outputs": [],
      "stateMutability": "nonpayable",
      "type": "function"
    }
  ],
  "transactionHash": "0x4763735f613c5fac2d91fca31f3dc22ea03341443892a89bdd068aef6f429052",
  "args": [],
  "solcInputHash": "6828678cf7019b5d316d664003754973",
  "bytecode": "0x608060405234801561001057600080fd5b50614ccf806100206000396000f3fe608060405234801561001057600080fd5b50600436106102895760003560e01c806377954ac21161015c578063b7b424e8116100ce578063e0507fac11610087578063e0507fac1461061d578063e985e9c514610630578063f242432a1461066c578063f3491f2b1461067f578063f4a1400214610694578063f5298aca146106a757600080fd5b8063b7b424e81461059c578063bd85b039146105af578063c8262c6c146105cf578063d2eb949b146105e4578063d547741f146105f7578063d81d0a151461060a57600080fd5b806391d148541161012057806391d14854146105345780639285a1e11461054757806398f192e31461055a578063a217fddf1461056e578063a22cb46514610576578063a4ed80511461058957600080fd5b806377954ac2146104dd5780637f9678b2146104f057806380583be714610510578063814d05f01461051857806381d792ef1461052b57600080fd5b80632f2ff15d116102005780634e1273f4116101b95780634e1273f41461044657806358b37b9b14610466578063590b07ec1461047957806366300d73146104a25780636b20c454146104b557806372c32860146104c857600080fd5b80632f2ff15d14610396578063313ce567146103a95780633627fda8146103c957806336568abe146103dc57806338841782146103ef57806348ab4f4b1461040457600080fd5b80631503063311610252578063150306331461031f578063156e29f6146103275780631b2121aa1461033a578063248a9ca31461034d5780632578f786146103705780632eb2c2d61461038357600080fd5b8062fdd58e1461028e57806301ffc9a7146102b457806302b171e2146102d757806302fe5305146102ea5780630e89341c146102ff575b600080fd5b6102a161029c366004614008565b6106ba565b6040519081526020015b60405180910390f35b6102c76102c23660046141de565b610753565b60405190151581526020016102ab565b6102a16102e5366004614249565b610764565b6102fd6102f8366004614216565b61077b565b005b61031261030d3660046141a4565b61083a565b6040516102ab9190614590565b6103126108ce565b6102fd610335366004614031565b61095d565b6102fd610348366004614216565b6109b1565b6102a161035b3660046141a4565b60009081526097602052604090206001015490565b6102fd61037e36600461416c565b6109f2565b6102fd610391366004613d15565b610a45565b6102fd6103a43660046141bc565b610adc565b610131546103b79060ff1681565b60405160ff90911681526020016102ab565b6102fd6103d73660046141bc565b610b02565b6102fd6103ea3660046141bc565b610b0d565b6102a1600080516020614c5a83398151915281565b61042e6104123660046141a4565b61012d602052600090815260409020546001600160a01b031681565b6040516001600160a01b0390911681526020016102ab565b610459610454366004614063565b610b87565b6040516102ab9190614558565b61042e6104743660046141a4565b610ce8565b61042e6104873660046141a4565b60fb602052600090815260409020546001600160a01b031681565b6102a16104b0366004614249565b610cf3565b6102fd6104c3366004613e5d565b610d52565b6102a1600080516020614c7a83398151915281565b6104596104eb36600461412d565b610df4565b6102a16104fe366004613cc9565b60fd6020526000908152604090205481565b610312610ed1565b6102fd610526366004614249565b610edf565b6102a160fc5481565b6102c76105423660046141bc565b610f1e565b6102fd610555366004613dba565b610f49565b61012e5461042e906001600160a01b031681565b6102a1600081565b6102fd610584366004613eda565b610fd2565b6102fd610597366004613cc9565b6110a9565b6102fd6105aa366004614284565b6110e6565b6102a16105bd3660046141a4565b600090815260c9602052604090205490565b6102a1600080516020614c3a83398151915281565b6102fd6105f2366004614216565b611125565b6102fd6106053660046141bc565b611166565b6102fd610618366004613e5d565b61118c565b6102fd61062b366004613f10565b61123c565b6102c761063e366004613ce3565b6001600160a01b03918216600090815260666020908152604080832093909416825291909152205460ff1690565b6102fd61067a366004613dfb565b6112f8565b61012e546102c790600160a01b900460ff1681565b6102a16106a2366004614249565b61137f565b6102fd6106b5366004614031565b611431565b60006001600160a01b03831661072b5760405162461bcd60e51b815260206004820152602b60248201527f455243313135353a2062616c616e636520717565727920666f7220746865207a60448201526a65726f206164647265737360a81b60648201526084015b60405180910390fd5b5060009081526065602090815260408083206001600160a01b03949094168352929052205490565b600061075e82611470565b92915050565b6000610771848484611495565b90505b9392505050565b610793600080516020614c5a83398151915233610f1e565b6107f75760405162461bcd60e51b815260206004820152602f60248201527f45524331313535426173653a206d7573742068617665206d657461646174612060448201526e726f6c6520746f207365742055524960881b6064820152608401610722565b61083682828080601f01602080910402602001604051908101604052809392919081815260200183838082843760009201919091525061150292505050565b5050565b60606067805461084990614a9c565b80601f016020809104026020016040519081016040528092919081815260200182805461087590614a9c565b80156108c25780601f10610897576101008083540402835291602001916108c2565b820191906000526020600020905b8154815290600101906020018083116108a557829003601f168201915b50505050509050919050565b61012f80546108dc90614a9c565b80601f016020809104026020016040519081016040528092919081815260200182805461090890614a9c565b80156109555780601f1061092a57610100808354040283529160200191610955565b820191906000526020600020905b81548152906001019060200180831161093857829003601f168201915b505050505081565b610975600080516020614c7a83398151915233610f1e565b6109915760405162461bcd60e51b8152600401610722906146c4565b6109ac83838360405180602001604052806000815250611515565b505050565b6109c9600080516020614c5a83398151915233610f1e565b6109e55760405162461bcd60e51b81526004016107229061490f565b6109ac61012f8383613a23565b610a0a600080516020614c5a83398151915233610f1e565b610a265760405162461bcd60e51b81526004016107229061490f565b61012e8054911515600160a01b0260ff60a01b19909216919091179055565b6001600160a01b038516331480610a615750610a61853361063e565b610ac85760405162461bcd60e51b815260206004820152603260248201527f455243313135353a207472616e736665722063616c6c6572206973206e6f74206044820152711bdddb995c881b9bdc88185c1c1c9bdd995960721b6064820152608401610722565b610ad585858585856115ed565b5050505050565b600082815260976020526040902060010154610af88133611801565b6109ac8383611865565b6108368282336118eb565b6001600160a01b0381163314610b7d5760405162461bcd60e51b815260206004820152602f60248201527f416363657373436f6e74726f6c3a2063616e206f6e6c792072656e6f756e636560448201526e103937b632b9903337b91039b2b63360891b6064820152608401610722565b61083682826119de565b60608151835114610bec5760405162461bcd60e51b815260206004820152602960248201527f455243313135353a206163636f756e747320616e6420696473206c656e677468604482015268040dad2e6dac2e8c6d60bb1b6064820152608401610722565b600083516001600160401b03811115610c1557634e487b7160e01b600052604160045260246000fd5b604051908082528060200260200182016040528015610c3e578160200160208202803683370190505b50905060005b8451811015610ce057610ca5858281518110610c7057634e487b7160e01b600052603260045260246000fd5b6020026020010151858381518110610c9857634e487b7160e01b600052603260045260246000fd5b60200260200101516106ba565b828281518110610cc557634e487b7160e01b600052603260045260246000fd5b6020908102919091010152610cd981614b03565b9050610c44565b509392505050565b600061075e82611a45565b6001600160a01b038216600090815260fd602052604081205480610d1b576000915050610774565b600090815260fb6020908152604080832087845260030182528083206001600160a01b038616845290915290205490509392505050565b610d6a600080516020614c7a83398151915233610f1e565b610d865760405162461bcd60e51b815260040161072290614835565b610ad58585858080602002602001604051908101604052809392919081815260200183836020028082843760009201919091525050604080516020808902828101820190935288825290935088925087918291850190849080828437600092019190915250611b8092505050565b6060816001600160401b03811115610e1c57634e487b7160e01b600052604160045260246000fd5b604051908082528060200260200182016040528015610e45578160200160208202803683370190505b50905060005b82811015610eca5760c96000858584818110610e7757634e487b7160e01b600052603260045260246000fd5b90506020020135815260200190815260200160002054828281518110610ead57634e487b7160e01b600052603260045260246000fd5b602090810291909101015280610ec281614b03565b915050610e4b565b5092915050565b61013080546108dc90614a9c565b610ef7600080516020614c3a83398151915233610f1e565b610f135760405162461bcd60e51b81526004016107229061467a565b6109ac8383836118eb565b60009182526097602090815260408084206001600160a01b0393909316845291905290205460ff1690565b600082815261012d60205260409020546001600160a01b03163314610fb05760405162461bcd60e51b815260206004820181905260248201527f5772617070656445524331313535546f6b656e3a206e6f7420777261707065726044820152606401610722565b610fcc8484848460405180602001604052806000815250611d3a565b50505050565b336001600160a01b038316141561103d5760405162461bcd60e51b815260206004820152602960248201527f455243313135353a2073657474696e6720617070726f76616c20737461747573604482015268103337b91039b2b63360b91b6064820152608401610722565b3360008181526066602090815260408083206001600160a01b03871680855290835292819020805460ff191686151590811790915590519081529192917f17307eab39ab6107e8899845ad3d59bd9653f200f220920489ca2b5937696c31910160405180910390a35050565b6110c1600080516020614c3a83398151915233610f1e565b6110dd5760405162461bcd60e51b81526004016107229061467a565b61083681611e64565b6110fe600080516020614c3a83398151915233610f1e565b61111a5760405162461bcd60e51b81526004016107229061467a565b6109ac838383611f33565b61113d600080516020614c5a83398151915233610f1e565b6111595760405162461bcd60e51b81526004016107229061490f565b6109ac6101308383613a23565b6000828152609760205260409020600101546111828133611801565b6109ac83836119de565b6111a4600080516020614c7a83398151915233610f1e565b6111c05760405162461bcd60e51b8152600401610722906146c4565b610ad58585858080602002602001604051908101604052809392919081815260200183836020028082843760009201919091525050604080516020808902828101820190935288825290935088925087918291850190849080828437600092018290525060408051602081019091529081529250612047915050565b600054610100900460ff1680611255575060005460ff16155b6112715760405162461bcd60e51b81526004016107229061475a565b600054610100900460ff16158015611293576000805461ffff19166101011790555b6112d98b8b8b8b8b808060200260200160405190810160405280939291908181526020018383602002808284376000920191909152508d92508c91508b90508a8a6121be565b80156112eb576000805461ff00191690555b5050505050505050505050565b6001600160a01b0385163314806113145750611314853361063e565b6113725760405162461bcd60e51b815260206004820152602960248201527f455243313135353a2063616c6c6572206973206e6f74206f776e6572206e6f7260448201526808185c1c1c9bdd995960ba1b6064820152608401610722565b610ad58585858585611d3a565b6001600160a01b038216600090815260fd6020526040812054806113a7576000915050610774565b600081815260fb602090815260408083208884526002810183528184206001600160a01b038816855290925290912054600160801b9061141d9061140e6113ee888b6106ba565b60008b815260018701602052604090205461140991906149e4565b612292565b6114189190614977565b612300565b61142791906149d0565b9695505050505050565b611449600080516020614c7a83398151915233610f1e565b6114655760405162461bcd60e51b815260040161072290614835565b6109ac838383612352565b60006001600160e01b03198216637965db0b60e01b148061075e575061075e8261245f565b6001600160a01b038216600090815260fd6020526040812054806114bd576000915050610774565b600081815260fb602090815260408083208884526003810183528184206001600160a01b0388168552909252909120546114f887878761137f565b6114279190614a42565b8051610836906067906020840190613aa3565b6001600160a01b03841661153b5760405162461bcd60e51b8152600401610722906148ce565b3361155b8160008761154c886124af565b611555886124af565b87612508565b60008481526065602090815260408083206001600160a01b03891684529091528120805485929061158d9084906149b8565b909155505060408051858152602081018590526001600160a01b0380881692600092918516917fc3d58168c5ae7397731d063d5bbf3d657854427343f4c083240f7aacaa2d0f62910160405180910390a4610ad581600087878787612516565b815183511461160e5760405162461bcd60e51b815260040161072290614886565b6001600160a01b0384166116345760405162461bcd60e51b815260040161072290614715565b33611643818787878787612508565b60005b845181101561179357600085828151811061167157634e487b7160e01b600052603260045260246000fd5b60200260200101519050600085838151811061169d57634e487b7160e01b600052603260045260246000fd5b60209081029190910181015160008481526065835260408082206001600160a01b038e1683529093529190912054909150818110156116ee5760405162461bcd60e51b8152600401610722906147eb565b6116f88282614a42565b6065600085815260200190815260200160002060008c6001600160a01b03166001600160a01b0316815260200190815260200160002081905550816065600085815260200190815260200160002060008b6001600160a01b03166001600160a01b03168152602001908152602001600020600082825461177891906149b8565b925050819055505050508061178c90614b03565b9050611646565b50846001600160a01b0316866001600160a01b0316826001600160a01b03167f4a39dc06d4c0dbc64b70af90fd698a233a518aa5d07e595d983b8c0526c8f7fb87876040516117e392919061456b565b60405180910390a46117f981878787878761269a565b505050505050565b61180b8282610f1e565b61083657611823816001600160a01b03166014612764565b61182e836020612764565b60405160200161183f9291906143fc565b60408051601f198184030181529082905262461bcd60e51b825261072291600401614590565b61186f8282610f1e565b6108365760008281526097602090815260408083206001600160a01b03851684529091529020805460ff191660011790556118a73390565b6001600160a01b0316816001600160a01b0316837f2f8788117e7eff1d82e926ec794901d17c78024a50270940304540a733656f0d60405160405180910390a45050565b60006118f8848484611495565b90508015610fcc576001600160a01b038316600090815260fd6020526040902054806119365760405162461bcd60e51b8152600401610722906145eb565b600081815260fb602090815260408083208884526003810183528184206001600160a01b038816855290925282208054919285926119759084906149b8565b92505081905550846001600160a01b0316846001600160a01b0316877f56f5c15e9cca112839303eda856edf8986e092fc839520408e38e9e662b8d27e866040516119c291815260200190565b60405180910390a46117f96001600160a01b0386168585612945565b6119e88282610f1e565b156108365760008281526097602090815260408083206001600160a01b0385168085529252808320805460ff1916905551339285917ff6391f5c32d9c69d2a47ea670b442974b53935d1edc7fd64eb21e047a839171b9190a45050565b600081815261012d60205260409020546001600160a01b031680611b7b5761012e54600090611a7c906001600160a01b03166129a8565b90506000611a8984612a40565b9050600061012f82604051602001611aa2929190614356565b6040516020818303038152906040529050600061013083604051602001611aca929190614356565b60408051601f19818403018152908290526101315463be88368d60e01b83529092506001600160a01b0386169163be88368d91611b179130918b918891889160ff90911690600401614509565b600060405180830381600087803b158015611b3157600080fd5b505af1158015611b45573d6000803e3d6000fd5b505050600087815261012d6020526040902080546001600160a01b0319166001600160a01b039690961695909517909455505050505b919050565b6001600160a01b038316611ba65760405162461bcd60e51b8152600401610722906147a8565b8051825114611bc75760405162461bcd60e51b815260040161072290614886565b6000339050611bea81856000868660405180602001604052806000815250612508565b60005b8351811015611cdb576000848281518110611c1857634e487b7160e01b600052603260045260246000fd5b602002602001015190506000848381518110611c4457634e487b7160e01b600052603260045260246000fd5b60209081029190910181015160008481526065835260408082206001600160a01b038c168352909352919091205490915081811015611c955760405162461bcd60e51b815260040161072290614636565b611c9f8282614a42565b60009384526065602090815260408086206001600160a01b038c1687529091529093209290925550819050611cd381614b03565b915050611bed565b5060006001600160a01b0316846001600160a01b0316826001600160a01b03167f4a39dc06d4c0dbc64b70af90fd698a233a518aa5d07e595d983b8c0526c8f7fb8686604051611d2c92919061456b565b60405180910390a450505050565b6001600160a01b038416611d605760405162461bcd60e51b815260040161072290614715565b33611d7081878761154c886124af565b60008481526065602090815260408083206001600160a01b038a16845290915290205483811015611db35760405162461bcd60e51b8152600401610722906147eb565b611dbd8482614a42565b60008681526065602090815260408083206001600160a01b038c81168552925280832093909355881681529081208054869290611dfb9084906149b8565b909155505060408051868152602081018690526001600160a01b03808916928a821692918616917fc3d58168c5ae7397731d063d5bbf3d657854427343f4c083240f7aacaa2d0f62910160405180910390a4611e5b828888888888612516565b50505050505050565b6001600160a01b038116600090815260fd602052604081205415611edb5760405162461bcd60e51b815260206004820152602860248201527f455243313135354469766964656e64546f6b656e3a20616c726561647920726560448201526719da5cdd195c995960c21b6064820152608401610722565b60fc8054906000611eeb83614b03565b909155505060fc54600081815260fb6020908152604080832080546001600160a01b039097166001600160a01b03199097168717905594825260fd9052929092208290555090565b600083815260c9602052604090205480611f4c57600080fd5b60008211611f5957600080fd5b6001600160a01b038316600090815260fd602052604090205480611f8f5760405162461bcd60e51b8152600401610722906145eb565b600081815260fb6020526040902082611fac600160801b866149e4565b611fb691906149d0565b600087815260018301602052604081208054909190611fd69084906149b8565b90915550611ff190506001600160a01b038616333087612b61565b846001600160a01b0316336001600160a01b0316877f8e19c486d7cf157228582812303b4763c49b90104252be0a955a3efb25f46ada8760405161203791815260200190565b60405180910390a4505050505050565b6001600160a01b03841661206d5760405162461bcd60e51b8152600401610722906148ce565b815183511461208e5760405162461bcd60e51b815260040161072290614886565b3361209e81600087878787612508565b60005b8451811015612156578381815181106120ca57634e487b7160e01b600052603260045260246000fd5b6020026020010151606560008784815181106120f657634e487b7160e01b600052603260045260246000fd5b602002602001015181526020019081526020016000206000886001600160a01b03166001600160a01b03168152602001908152602001600020600082825461213e91906149b8565b9091555081905061214e81614b03565b9150506120a1565b50846001600160a01b031660006001600160a01b0316826001600160a01b03167f4a39dc06d4c0dbc64b70af90fd698a233a518aa5d07e595d983b8c0526c8f7fb87876040516121a792919061456b565b60405180910390a4610ad58160008787878761269a565b600054610100900460ff16806121d7575060005460ff16155b6121f35760405162461bcd60e51b81526004016107229061475a565b600054610100900460ff16158015612215576000805461ffff19166101011790555b6122558a8a8a8080601f016020809104026020016040519081016040528093929190818152602001838380828437600092019190915250612b9992505050565b61225e87612c18565b61226b8686868686612d6b565b6122748a612e3d565b8015612286576000805461ff00191690555b50505050505050505050565b60006001600160ff1b038211156122fc5760405162461bcd60e51b815260206004820152602860248201527f53616665436173743a2076616c756520646f65736e27742066697420696e2061604482015267371034b73a191a9b60c11b6064820152608401610722565b5090565b6000808212156122fc5760405162461bcd60e51b815260206004820181905260248201527f53616665436173743a2076616c7565206d75737420626520706f7369746976656044820152606401610722565b6001600160a01b0383166123785760405162461bcd60e51b8152600401610722906147a8565b336123a781856000612389876124af565b612392876124af565b60405180602001604052806000815250612508565b60008381526065602090815260408083206001600160a01b0388168452909152902054828110156123ea5760405162461bcd60e51b815260040161072290614636565b6123f48382614a42565b60008581526065602090815260408083206001600160a01b038a811680865291845282852095909555815189815292830188905292938616917fc3d58168c5ae7397731d063d5bbf3d657854427343f4c083240f7aacaa2d0f62910160405180910390a45050505050565b60006001600160e01b03198216636cdb3d1360e11b148061249057506001600160e01b031982166303a24d0760e21b145b8061075e57506301ffc9a760e01b6001600160e01b031983161461075e565b604080516001808252818301909252606091600091906020808301908036833701905050905082816000815181106124f757634e487b7160e01b600052603260045260246000fd5b602090810291909101015292915050565b6117f9868686868686612ed9565b6001600160a01b0384163b1515801561253a5750612538868686868686613075565b155b156117f95760405163f23a6e6160e01b81526001600160a01b0385169063f23a6e619061257390899089908890889088906004016144cf565b602060405180830381600087803b15801561258d57600080fd5b505af19250505080156125bd575060408051601f3d908101601f191682019092526125ba918101906141fa565b60015b61266a576125c9614b74565b806308c379a0141561260357506125de614b8c565b806125e95750612605565b8060405162461bcd60e51b81526004016107229190614590565b505b60405162461bcd60e51b815260206004820152603460248201527f455243313135353a207472616e7366657220746f206e6f6e20455243313135356044820152732932b1b2b4bb32b91034b6b83632b6b2b73a32b960611b6064820152608401610722565b6001600160e01b0319811663f23a6e6160e01b14611e5b5760405162461bcd60e51b8152600401610722906145a3565b6001600160a01b0384163b156117f95760405163bc197c8160e01b81526001600160a01b0385169063bc197c81906126de9089908990889088908890600401614471565b602060405180830381600087803b1580156126f857600080fd5b505af1925050508015612728575060408051601f3d908101601f19168201909252612725918101906141fa565b60015b612734576125c9614b74565b6001600160e01b0319811663bc197c8160e01b14611e5b5760405162461bcd60e51b8152600401610722906145a3565b606060006127738360026149e4565b61277e9060026149b8565b6001600160401b038111156127a357634e487b7160e01b600052604160045260246000fd5b6040519080825280601f01601f1916602001820160405280156127cd576020820181803683370190505b509050600360fc1b816000815181106127f657634e487b7160e01b600052603260045260246000fd5b60200101906001600160f81b031916908160001a905350600f60fb1b8160018151811061283357634e487b7160e01b600052603260045260246000fd5b60200101906001600160f81b031916908160001a90535060006128578460026149e4565b6128629060016149b8565b90505b60018111156128f6576f181899199a1a9b1b9c1cb0b131b232b360811b85600f16601081106128a457634e487b7160e01b600052603260045260246000fd5b1a60f81b8282815181106128c857634e487b7160e01b600052603260045260246000fd5b60200101906001600160f81b031916908160001a90535060049490941c936128ef81614a85565b9050612865565b5083156107745760405162461bcd60e51b815260206004820181905260248201527f537472696e67733a20686578206c656e67746820696e73756666696369656e746044820152606401610722565b6040516001600160a01b0383166024820152604481018290526109ac90849063a9059cbb60e01b906064015b60408051601f198184030181529190526020810180516001600160e01b03166001600160e01b031990931692909217909152613090565b6000604051733d602d80600a3d3981f3363d3d373d3d3d363d7360601b81528260601b60148201526e5af43d82803e903d91602b57fd5bf360881b60288201526037816000f09150506001600160a01b038116611b7b5760405162461bcd60e51b8152602060048201526016602482015275115490cc4c4d8dce8818dc99585d194819985a5b195960521b6044820152606401610722565b606081612a645750506040805180820190915260018152600360fc1b602082015290565b8160005b8115612a8e5780612a7881614b03565b9150612a879050600a836149d0565b9150612a68565b6000816001600160401b03811115612ab657634e487b7160e01b600052604160045260246000fd5b6040519080825280601f01601f191660200182016040528015612ae0576020820181803683370190505b5090505b8415612b5957612af5600183614a42565b9150612b02600a86614b1e565b612b0d9060306149b8565b60f81b818381518110612b3057634e487b7160e01b600052603260045260246000fd5b60200101906001600160f81b031916908160001a905350612b52600a866149d0565b9450612ae4565b949350505050565b6040516001600160a01b0380851660248301528316604482015260648101829052610fcc9085906323b872dd60e01b90608401612971565b600054610100900460ff1680612bb2575060005460ff16155b612bce5760405162461bcd60e51b81526004016107229061475a565b600054610100900460ff16158015612bf0576000805461ffff19166101011790555b612bf982613162565b612c02836131d2565b80156109ac576000805461ff0019169055505050565b600054610100900460ff1680612c31575060005460ff16155b612c4d5760405162461bcd60e51b81526004016107229061475a565b600054610100900460ff16158015612c6f576000805461ffff19166101011790555b815160fc5560005b8251811015612d5557828181518110612ca057634e487b7160e01b600052603260045260246000fd5b602002602001015160fb6000836001612cb991906149b8565b8152602081019190915260400160002080546001600160a01b0319166001600160a01b0392909216919091179055612cf28160016149b8565b60fd6000858481518110612d1657634e487b7160e01b600052603260045260246000fd5b60200260200101516001600160a01b03166001600160a01b03168152602001908152602001600020819055508080612d4d90614b03565b915050612c77565b508015610836576000805461ff00191690555050565b600054610100900460ff1680612d84575060005460ff16155b612da05760405162461bcd60e51b81526004016107229061475a565b600054610100900460ff16158015612dc2576000805461ffff19166101011790555b61012e8054861515600160a01b026001600160a81b03199091166001600160a01b038916171790558351612dfe9061012f906020870190613aa3565b508251612e1390610130906020860190613aa3565b50610131805460ff191660ff841617905580156117f9576000805461ff0019169055505050505050565b600054610100900460ff1680612e56575060005460ff16155b612e725760405162461bcd60e51b81526004016107229061475a565b600054610100900460ff16158015612e94576000805461ffff19166101011790555b612eac600080516020614c3a83398151915283613289565b612ec4600080516020614c3a83398151915280613293565b8015610836576000805461ff00191690555050565b612ee78686868686866132de565b6001600160a01b038516612f595761012e54600160a01b900460ff1615612f595760005b8351811015612f5757612f44848281518110612f3757634e487b7160e01b600052603260045260246000fd5b6020026020010151611a45565b5080612f4f81614b03565b915050612f0b565b505b60005b8351811015611e5b57600061012d6000868481518110612f8c57634e487b7160e01b600052603260045260246000fd5b6020908102919091018101518252810191909152604001600020546001600160a01b031690508015613062576000819050806001600160a01b031663a6d49dca8989888781518110612fee57634e487b7160e01b600052603260045260246000fd5b60209081029190910101516040516001600160e01b031960e086901b1681526001600160a01b0393841660048201529290911660248301526044820152606401600060405180830381600087803b15801561304857600080fd5b505af115801561305c573d6000803e3d6000fd5b50505050505b508061306d81614b03565b915050612f5c565b6000613085878787878787613673565b979650505050505050565b60006130e5826040518060400160405280602081526020017f5361666545524332303a206c6f772d6c6576656c2063616c6c206661696c6564815250856001600160a01b03166136b19092919063ffffffff16565b8051909150156109ac57808060200190518101906131039190614188565b6109ac5760405162461bcd60e51b815260206004820152602a60248201527f5361666545524332303a204552433230206f7065726174696f6e20646964206e6044820152691bdd081cdd58d8d9595960b21b6064820152608401610722565b600054610100900460ff168061317b575060005460ff16155b6131975760405162461bcd60e51b81526004016107229061475a565b600054610100900460ff161580156131b9576000805461ffff19166101011790555b6131c16136c0565b6131c96136c0565b612ec48261372c565b600054610100900460ff16806131eb575060005460ff16155b6132075760405162461bcd60e51b81526004016107229061475a565b600054610100900460ff16158015613229576000805461ffff19166101011790555b613241600080516020614c5a83398151915283613289565b613259600080516020614c7a83398151915283613289565b613271600080516020614c5a83398151915280613293565b612ec4600080516020614c7a83398151915280613293565b6108368282611865565b600082815260976020526040808220600101805490849055905190918391839186917fbd79b86ffe0ab8e8776151514217cd7cacd52c909f66475c3af44e129f0b00ff9190a4505050565b6132ec86868686868661378c565b6001600160a01b0385166134065760005b835181101561340057600084828151811061332857634e487b7160e01b600052603260045260246000fd5b60200260200101519050600084838151811061335457634e487b7160e01b600052603260045260246000fd5b602002602001015190506000600190505b60fc5481116133ea57600081815260fb60209081526040808320868452600181019092529091205461339c906114099085906149e4565b600085815260028301602090815260408083206001600160a01b038e168452909152812080549091906133d0908490614a03565b909155508291506133e2905081614b03565b915050613365565b50505080806133f890614b03565b9150506132fd565b506117f9565b6001600160a01b03841661351a5760005b835181101561340057600084828151811061344257634e487b7160e01b600052603260045260246000fd5b60200260200101519050600084838151811061346e57634e487b7160e01b600052603260045260246000fd5b602002602001015190506000600190505b60fc54811161350457600081815260fb6020908152604080832086845260018101909252909120546134b6906114099085906149e4565b600085815260028301602090815260408083206001600160a01b038f168452909152812080549091906134ea908490614977565b909155508291506134fc905081614b03565b91505061347f565b505050808061351290614b03565b915050613417565b60005b8351811015611e5b57600084828151811061354857634e487b7160e01b600052603260045260246000fd5b60200260200101519050600084838151811061357457634e487b7160e01b600052603260045260246000fd5b602002602001015190506000600190505b60fc54811161365d57600081815260fb60209081526040808320868452600181019092528220549091906135be906114099086906149e4565b90508082600201600087815260200190815260200160002060008d6001600160a01b03166001600160a01b0316815260200190815260200160002060008282546136089190614977565b9091555050600085815260028301602090815260408083206001600160a01b038e16845290915281208054839290613641908490614a03565b925050819055505050808061365590614b03565b915050613585565b505050808061366b90614b03565b91505061351d565b600083815261012d60205260408120546001600160a01b031680156136a7576001600160a01b038881169116149050611427565b6000915050611427565b606061077184846000856138d2565b600054610100900460ff16806136d9575060005460ff16155b6136f55760405162461bcd60e51b81526004016107229061475a565b600054610100900460ff16158015613717576000805461ffff19166101011790555b8015613729576000805461ff00191690555b50565b600054610100900460ff1680613745575060005460ff16155b6137615760405162461bcd60e51b81526004016107229061475a565b600054610100900460ff16158015613783576000805461ffff19166101011790555b612ec482611502565b6001600160a01b03851661382f5760005b8351811015613400578281815181106137c657634e487b7160e01b600052603260045260246000fd5b602002602001015160c960008684815181106137f257634e487b7160e01b600052603260045260246000fd5b60200260200101518152602001908152602001600020600082825461381791906149b8565b9091555081905061382781614b03565b91505061379d565b6001600160a01b0384166117f95760005b8351811015611e5b5782818151811061386957634e487b7160e01b600052603260045260246000fd5b602002602001015160c9600086848151811061389557634e487b7160e01b600052603260045260246000fd5b6020026020010151815260200190815260200160002060008282546138ba9190614a42565b909155508190506138ca81614b03565b915050613840565b6060824710156139335760405162461bcd60e51b815260206004820152602660248201527f416464726573733a20696e73756666696369656e742062616c616e636520666f6044820152651c8818d85b1b60d21b6064820152608401610722565b843b6139815760405162461bcd60e51b815260206004820152601d60248201527f416464726573733a2063616c6c20746f206e6f6e2d636f6e74726163740000006044820152606401610722565b600080866001600160a01b0316858760405161399d919061433a565b60006040518083038185875af1925050503d80600081146139da576040519150601f19603f3d011682016040523d82523d6000602084013e6139df565b606091505b5091509150613085828286606083156139f9575081610774565b825115613a095782518084602001fd5b8160405162461bcd60e51b81526004016107229190614590565b828054613a2f90614a9c565b90600052602060002090601f016020900481019282613a515760008555613a97565b82601f10613a6a5782800160ff19823516178555613a97565b82800160010185558215613a97579182015b82811115613a97578235825591602001919060010190613a7c565b506122fc929150613b17565b828054613aaf90614a9c565b90600052602060002090601f016020900481019282613ad15760008555613a97565b82601f10613aea57805160ff1916838001178555613a97565b82800160010185558215613a97579182015b82811115613a97578251825591602001919060010190613afc565b5b808211156122fc5760008155600101613b18565b80356001600160a01b0381168114611b7b57600080fd5b60008083601f840112613b54578182fd5b5081356001600160401b03811115613b6a578182fd5b6020830191508360208260051b8501011115613b8557600080fd5b9250929050565b600082601f830112613b9c578081fd5b81356020613ba982614954565b604051613bb68282614ad7565b8381528281019150858301600585901b87018401881015613bd5578586fd5b855b85811015613bf357813584529284019290840190600101613bd7565b5090979650505050505050565b8035611b7b81614c15565b600082601f830112613c1b578081fd5b81356001600160401b03811115613c3457613c34614b5e565b604051613c4b601f8301601f191660200182614ad7565b818152846020838601011115613c5f578283fd5b816020850160208301379081016020019190915292915050565b60008083601f840112613c8a578182fd5b5081356001600160401b03811115613ca0578182fd5b602083019150836020828501011115613b8557600080fd5b803560ff81168114611b7b57600080fd5b600060208284031215613cda578081fd5b61077482613b2c565b60008060408385031215613cf5578081fd5b613cfe83613b2c565b9150613d0c60208401613b2c565b90509250929050565b600080600080600060a08688031215613d2c578081fd5b613d3586613b2c565b9450613d4360208701613b2c565b935060408601356001600160401b0380821115613d5e578283fd5b613d6a89838a01613b8c565b94506060880135915080821115613d7f578283fd5b613d8b89838a01613b8c565b93506080880135915080821115613da0578283fd5b50613dad88828901613c0b565b9150509295509295909350565b60008060008060808587031215613dcf578384fd5b613dd885613b2c565b9350613de660208601613b2c565b93969395505050506040820135916060013590565b600080600080600060a08688031215613e12578081fd5b613e1b86613b2c565b9450613e2960208701613b2c565b9350604086013592506060860135915060808601356001600160401b03811115613e51578182fd5b613dad88828901613c0b565b600080600080600060608688031215613e74578283fd5b613e7d86613b2c565b945060208601356001600160401b0380821115613e98578485fd5b613ea489838a01613b43565b90965094506040880135915080821115613ebc578283fd5b50613ec988828901613b43565b969995985093965092949392505050565b60008060408385031215613eec578182fd5b613ef583613b2c565b91506020830135613f0581614c15565b809150509250929050565b6000806000806000806000806000806101008b8d031215613f2f578788fd5b613f388b613b2c565b995060208b01356001600160401b0380821115613f5357898afd5b613f5f8e838f01613c79565b909b50995060408d0135915080821115613f77578687fd5b613f838e838f01613b43565b9099509750879150613f9760608e01613b2c565b9650613fa560808e01613c00565b955060a08d0135915080821115613fba578485fd5b613fc68e838f01613c0b565b945060c08d0135915080821115613fdb578384fd5b50613fe88d828e01613c0b565b925050613ff760e08c01613cb8565b90509295989b9194979a5092959850565b6000806040838503121561401a578182fd5b61402383613b2c565b946020939093013593505050565b600080600060608486031215614045578081fd5b61404e84613b2c565b95602085013595506040909401359392505050565b60008060408385031215614075578182fd5b82356001600160401b038082111561408b578384fd5b818501915085601f83011261409e578384fd5b813560206140ab82614954565b6040516140b88282614ad7565b8381528281019150858301600585901b870184018b10156140d7578889fd5b8896505b84871015614100576140ec81613b2c565b8352600196909601959183019183016140db565b5096505086013592505080821115614116578283fd5b5061412385828601613b8c565b9150509250929050565b6000806020838503121561413f578182fd5b82356001600160401b03811115614154578283fd5b61416085828601613b43565b90969095509350505050565b60006020828403121561417d578081fd5b813561077481614c15565b600060208284031215614199578081fd5b815161077481614c15565b6000602082840312156141b5578081fd5b5035919050565b600080604083850312156141ce578182fd5b82359150613d0c60208401613b2c565b6000602082840312156141ef578081fd5b813561077481614c23565b60006020828403121561420b578081fd5b815161077481614c23565b60008060208385031215614228578182fd5b82356001600160401b0381111561423d578283fd5b61416085828601613c79565b60008060006060848603121561425d578081fd5b8335925061426d60208501613b2c565b915061427b60408501613b2c565b90509250925092565b600080600060608486031215614298578081fd5b833592506142a860208501613b2c565b9150604084013590509250925092565b6000815180845260208085019450808401835b838110156142e7578151875295820195908201906001016142cb565b509495945050505050565b6000815180845261430a816020860160208601614a59565b601f01601f19169290920160200192915050565b60008151614330818560208601614a59565b9290920192915050565b6000825161434c818460208701614a59565b9190910192915050565b600080845482600182811c91508083168061437257607f831692505b602080841082141561439257634e487b7160e01b87526022600452602487fd5b8180156143a657600181146143b7576143e3565b60ff198616895284890196506143e3565b60008b815260209020885b868110156143db5781548b8201529085019083016143c2565b505084890196505b5050505050506143f3818561431e565b95945050505050565b7f416363657373436f6e74726f6c3a206163636f756e7420000000000000000000815260008351614434816017850160208801614a59565b7001034b99036b4b9b9b4b733903937b6329607d1b6017918401918201528351614465816028840160208801614a59565b01602801949350505050565b6001600160a01b0386811682528516602082015260a06040820181905260009061449d908301866142b8565b82810360608401526144af81866142b8565b905082810360808401526144c381856142f2565b98975050505050505050565b6001600160a01b03868116825285166020820152604081018490526060810183905260a060808201819052600090613085908301846142f2565b60018060a01b038616815284602082015260a06040820152600061453060a08301866142f2565b828103606084015261454281866142f2565b91505060ff831660808301529695505050505050565b60208152600061077460208301846142b8565b60408152600061457e60408301856142b8565b82810360208401526143f381856142b8565b60208152600061077460208301846142f2565b60208082526028908201527f455243313135353a204552433131353552656365697665722072656a656374656040820152676420746f6b656e7360c01b606082015260800190565b6020808252602b908201527f455243313135354469766964656e64546f6b656e3a20696e76616c696420646960408201526a3b34b232b7322a37b5b2b760a91b606082015260800190565b60208082526024908201527f455243313135353a206275726e20616d6f756e7420657863656564732062616c604082015263616e636560e01b606082015260800190565b6020808252602a908201527f46756e64696e674d756c7469746f6b656e3a206d7573742068617665206469766040820152696964656e6420726f6c6560b01b606082015260800190565b60208082526031908201527f45524331313535426173653a206d7573742068617665206d696e7465722d62756040820152701c9b995c881c9bdb19481d1bc81b5a5b9d607a1b606082015260800190565b60208082526025908201527f455243313135353a207472616e7366657220746f20746865207a65726f206164604082015264647265737360d81b606082015260800190565b6020808252602e908201527f496e697469616c697a61626c653a20636f6e747261637420697320616c72656160408201526d191e481a5b9a5d1a585b1a5e995960921b606082015260800190565b60208082526023908201527f455243313135353a206275726e2066726f6d20746865207a65726f206164647260408201526265737360e81b606082015260800190565b6020808252602a908201527f455243313135353a20696e73756666696369656e742062616c616e636520666f60408201526939103a3930b739b332b960b11b606082015260800190565b60208082526031908201527f45524331313535426173653a206d7573742068617665206d696e7465722d6275604082015270393732b9103937b632903a3790313ab93760791b606082015260800190565b60208082526028908201527f455243313135353a2069647320616e6420616d6f756e7473206c656e677468206040820152670dad2e6dac2e8c6d60c31b606082015260800190565b60208082526021908201527f455243313135353a206d696e7420746f20746865207a65726f206164647265736040820152607360f81b606082015260800190565b60208082526025908201527f5772617070656445524331313535546f6b656e3a206e6f206d6574616461746160408201526420726f6c6560d81b606082015260800190565b60006001600160401b0382111561496d5761496d614b5e565b5060051b60200190565b600080821280156001600160ff1b038490038513161561499957614999614b32565b600160ff1b83900384128116156149b2576149b2614b32565b50500190565b600082198211156149cb576149cb614b32565b500190565b6000826149df576149df614b48565b500490565b60008160001904831182151516156149fe576149fe614b32565b500290565b60008083128015600160ff1b850184121615614a2157614a21614b32565b6001600160ff1b0384018313811615614a3c57614a3c614b32565b50500390565b600082821015614a5457614a54614b32565b500390565b60005b83811015614a74578181015183820152602001614a5c565b83811115610fcc5750506000910152565b600081614a9457614a94614b32565b506000190190565b600181811c90821680614ab057607f821691505b60208210811415614ad157634e487b7160e01b600052602260045260246000fd5b50919050565b601f8201601f191681016001600160401b0381118282101715614afc57614afc614b5e565b6040525050565b6000600019821415614b1757614b17614b32565b5060010190565b600082614b2d57614b2d614b48565b500690565b634e487b7160e01b600052601160045260246000fd5b634e487b7160e01b600052601260045260246000fd5b634e487b7160e01b600052604160045260246000fd5b600060033d1115614b8957600481823e5160e01c5b90565b600060443d1015614b9a5790565b6040516003193d81016004833e81513d6001600160401b038160248401118184111715614bc957505050505090565b8285019150815181811115614be15750505050505090565b843d8701016020828501011115614bfb5750505050505090565b614c0a60208286010187614ad7565b509095945050505050565b801515811461372957600080fd5b6001600160e01b03198116811461372957600080fdfe1306abaae01ce00b9f91c50a35fbeecbc60f12b86cc685e2cf1f6baae86d17936bd6b5318a46e5fff572d5e4258a20774aab40cc35ac7680654b9081fcc82f80cfd53186d792f1ec9d0679afc2dc3ffc86fc31fe1e0f342b838eb6c3eade62b3a2646970667358221220abd08a8a0aa3a293fb57524fba8bda22bca5221d15c927edec647f3209adb6e564736f6c63430008040033",
  "devdoc": {
    "kind": "dev",
    "methods": {
      "accumulativeDividendOf(uint256,address,address)": {
        "details": "accumulativeDividendOf(_owner) = _withdrawableDividendOf(_owner) + withdrawnDividendOf(_owner) = (magnifiedDividendPerShare * balanceOf(_owner) + magnifiedDividendCorrections[_owner]) / magnitude",
        "params": {
          "_owner": "The address of a token holder.",
          "dividendToken": "The token the dividend is in",
          "tokenID": "The token's ID."
        },
        "returns": {
          "_0": "The amount of dividend in wei that `_owner` has earned in total."
        }
      },
      "balanceOf(address,uint256)": {
        "details": "See {IERC1155-balanceOf}. Requirements: - `account` cannot be the zero address."
      },
      "balanceOfBatch(address[],uint256[])": {
        "details": "See {IERC1155-balanceOfBatch}. Requirements: - `accounts` and `ids` must have the same length."
      },
      "deployWrapper(uint256)": {
        "details": "If a wrapper already exists for this tokenID, does nothing and returns the address of the existing wrapper.",
        "params": {
          "tokenID": "The ID of the token to wrap"
        },
        "returns": {
          "wrapperAddress": "The address of the wrapper"
        }
      },
      "dividendOf(uint256,address,address)": {
        "params": {
          "_owner": "The address of a token holder.",
          "dividendToken": "The token the dividend is in",
          "tokenID": "The token's ID."
        },
        "returns": {
          "_0": "The amount of dividend in wei that `_owner` can withdraw."
        }
      },
      "getRoleAdmin(bytes32)": {
        "details": "Returns the admin role that controls `role`. See {grantRole} and {revokeRole}. To change a role's admin, use {_setRoleAdmin}."
      },
      "grantRole(bytes32,address)": {
        "details": "Grants `role` to `account`. If `account` had not been already granted `role`, emits a {RoleGranted} event. Requirements: - the caller must have ``role``'s admin role."
      },
      "hasRole(bytes32,address)": {
        "details": "Returns `true` if `account` has been granted `role`."
      },
      "isApprovedForAll(address,address)": {
        "details": "See {IERC1155-isApprovedForAll}."
      },
      "renounceRole(bytes32,address)": {
        "details": "Revokes `role` from the calling account. Roles are often managed via {grantRole} and {revokeRole}: this function's purpose is to provide a mechanism for accounts to lose their privileges if they are compromised (such as when a trusted device is misplaced). If the calling account had been granted `role`, emits a {RoleRevoked} event. Requirements: - the caller must be `account`."
      },
      "revokeRole(bytes32,address)": {
        "details": "Revokes `role` from `account`. If `account` had been granted `role`, emits a {RoleRevoked} event. Requirements: - the caller must have ``role``'s admin role."
      },
      "safeBatchTransferFrom(address,address,uint256[],uint256[],bytes)": {
        "details": "See {IERC1155-safeBatchTransferFrom}."
      },
      "safeTransferFrom(address,address,uint256,uint256,bytes)": {
        "details": "See {IERC1155-safeTransferFrom}."
      },
      "setApprovalForAll(address,bool)": {
        "details": "See {IERC1155-setApprovalForAll}."
      },
      "uri(uint256)": {
        "details": "See {IERC1155MetadataURI-uri}. This implementation returns the same URI for *all* token types. It relies on the token type ID substitution mechanism https://eips.ethereum.org/EIPS/eip-1155#metadata[defined in the EIP]. Clients calling this function must replace the `\\{id\\}` substring with the actual token type ID."
      },
      "withdrawnDividendOf(uint256,address,address)": {
        "params": {
          "_owner": "The address of a token holder.",
          "dividendToken": "The token the dividend is in",
          "tokenID": "The token's ID."
        },
        "returns": {
          "_0": "The amount of dividend in wei that `_owner` has withdrawn."
        }
      },
      "wrapperTransfer(address,address,uint256,uint256)": {
        "details": "Only callable by a wrapper deployed by this contract.",
        "params": {
          "amount": "The amount to transfer",
          "from": "Source of transfer",
          "to": "Target of transfer",
          "tokenID": "The ERC-1155 token ID of the wrapper"
        }
      }
    },
    "version": 1
  },
  "userdoc": {
    "kind": "user",
    "methods": {
      "accumulativeDividendOf(uint256,address,address)": {
        "notice": "View the amount of dividend in wei that an address has earned in total."
      },
      "deployWrapper(uint256)": {
        "notice": "Deploys an ERC20Wrapper contract for the ERC-1155 tokens with ID `tokenID`."
      },
      "dividendOf(uint256,address,address)": {
        "notice": "View the amount of dividend in wei that an address can withdraw."
      },
      "dividendTokenDataList(uint256)": {
        "notice": "The list of tokens that can be distributed to token holders as dividend. 1-indexed."
      },
      "dividendTokenToDataID(address)": {
        "notice": "The dividend token address to its key in {dividendTokenDataList}"
      },
      "setDeployWrapperOnMint(bool)": {
        "notice": "Param setters (need metadata role)"
      },
      "withdrawnDividendOf(uint256,address,address)": {
        "notice": "View the amount of dividend in wei that an address has withdrawn."
      },
      "wrapperTransfer(address,address,uint256,uint256)": {
        "notice": "Called by an ERC20Wrapper contract to handle a transfer call."
      }
    },
    "version": 1
  },
  "storageLayout": {
    "storage": [
      {
        "astId": 618,
        "contract": "contracts/tokens/FundingMultitoken.sol:FundingMultitoken",
        "label": "_initialized",
        "offset": 0,
        "slot": "0",
        "type": "t_bool"
      },
      {
        "astId": 621,
        "contract": "contracts/tokens/FundingMultitoken.sol:FundingMultitoken",
        "label": "_initializing",
        "offset": 1,
        "slot": "0",
        "type": "t_bool"
      },
      {
        "astId": 3221,
        "contract": "contracts/tokens/FundingMultitoken.sol:FundingMultitoken",
        "label": "__gap",
        "offset": 0,
        "slot": "1",
        "type": "t_array(t_uint256)50_storage"
      },
      {
        "astId": 3581,
        "contract": "contracts/tokens/FundingMultitoken.sol:FundingMultitoken",
        "label": "__gap",
        "offset": 0,
        "slot": "51",
        "type": "t_array(t_uint256)50_storage"
      },
      {
        "astId": 14098,
        "contract": "contracts/tokens/FundingMultitoken.sol:FundingMultitoken",
        "label": "_balances",
        "offset": 0,
        "slot": "101",
        "type": "t_mapping(t_uint256,t_mapping(t_address,t_uint256))"
      },
      {
        "astId": 14104,
        "contract": "contracts/tokens/FundingMultitoken.sol:FundingMultitoken",
        "label": "_operatorApprovals",
        "offset": 0,
        "slot": "102",
        "type": "t_mapping(t_address,t_mapping(t_address,t_bool))"
      },
      {
        "astId": 14106,
        "contract": "contracts/tokens/FundingMultitoken.sol:FundingMultitoken",
        "label": "_uri",
        "offset": 0,
        "slot": "103",
        "type": "t_string_storage"
      },
      {
        "astId": 15207,
        "contract": "contracts/tokens/FundingMultitoken.sol:FundingMultitoken",
        "label": "__gap",
        "offset": 0,
        "slot": "104",
        "type": "t_array(t_uint256)47_storage"
      },
      {
        "astId": 48,
        "contract": "contracts/tokens/FundingMultitoken.sol:FundingMultitoken",
        "label": "_roles",
        "offset": 0,
        "slot": "151",
        "type": "t_mapping(t_bytes32,t_struct(RoleData)43_storage)"
      },
      {
        "astId": 333,
        "contract": "contracts/tokens/FundingMultitoken.sol:FundingMultitoken",
        "label": "__gap",
        "offset": 0,
        "slot": "152",
        "type": "t_array(t_uint256)49_storage"
      },
      {
        "astId": 12965,
        "contract": "contracts/tokens/FundingMultitoken.sol:FundingMultitoken",
        "label": "_totalSupply",
        "offset": 0,
        "slot": "201",
        "type": "t_mapping(t_uint256,t_uint256)"
      },
      {
        "astId": 13303,
        "contract": "contracts/tokens/FundingMultitoken.sol:FundingMultitoken",
        "label": "__gap",
        "offset": 0,
        "slot": "202",
        "type": "t_array(t_uint256)49_storage"
      },
      {
        "astId": 13357,
        "contract": "contracts/tokens/FundingMultitoken.sol:FundingMultitoken",
        "label": "dividendTokenDataList",
        "offset": 0,
        "slot": "251",
        "type": "t_mapping(t_uint256,t_struct(DividendTokenData)13346_storage)"
      },
      {
        "astId": 13359,
        "contract": "contracts/tokens/FundingMultitoken.sol:FundingMultitoken",
        "label": "dividendTokenDataListLength",
        "offset": 0,
        "slot": "252",
        "type": "t_uint256"
      },
      {
        "astId": 13364,
        "contract": "contracts/tokens/FundingMultitoken.sol:FundingMultitoken",
        "label": "dividendTokenToDataID",
        "offset": 0,
        "slot": "253",
        "type": "t_mapping(t_address,t_uint256)"
      },
      {
        "astId": 14060,
        "contract": "contracts/tokens/FundingMultitoken.sol:FundingMultitoken",
        "label": "__gap",
        "offset": 0,
        "slot": "254",
        "type": "t_array(t_uint256)47_storage"
      },
      {
        "astId": 16473,
        "contract": "contracts/tokens/FundingMultitoken.sol:FundingMultitoken",
        "label": "tokenIDToWrapper",
        "offset": 0,
        "slot": "301",
        "type": "t_mapping(t_uint256,t_address)"
      },
      {
        "astId": 16475,
        "contract": "contracts/tokens/FundingMultitoken.sol:FundingMultitoken",
        "label": "wrapperTemplate",
        "offset": 0,
        "slot": "302",
        "type": "t_address"
      },
      {
        "astId": 16477,
        "contract": "contracts/tokens/FundingMultitoken.sol:FundingMultitoken",
        "label": "deployWrapperOnMint",
        "offset": 20,
        "slot": "302",
        "type": "t_bool"
      },
      {
        "astId": 16479,
        "contract": "contracts/tokens/FundingMultitoken.sol:FundingMultitoken",
        "label": "baseName",
        "offset": 0,
        "slot": "303",
        "type": "t_string_storage"
      },
      {
        "astId": 16481,
        "contract": "contracts/tokens/FundingMultitoken.sol:FundingMultitoken",
        "label": "baseSymbol",
        "offset": 0,
        "slot": "304",
        "type": "t_string_storage"
      },
      {
        "astId": 16483,
        "contract": "contracts/tokens/FundingMultitoken.sol:FundingMultitoken",
        "label": "decimals",
        "offset": 0,
        "slot": "305",
        "type": "t_uint8"
      },
      {
        "astId": 16891,
        "contract": "contracts/tokens/FundingMultitoken.sol:FundingMultitoken",
        "label": "__gap",
        "offset": 0,
        "slot": "306",
        "type": "t_array(t_uint256)44_storage"
      },
      {
        "astId": 30580,
        "contract": "contracts/tokens/FundingMultitoken.sol:FundingMultitoken",
        "label": "__gap",
        "offset": 0,
        "slot": "350",
        "type": "t_array(t_uint256)50_storage"
      }
    ],
    "types": {
      "t_address": {
        "encoding": "inplace",
        "label": "address",
        "numberOfBytes": "20"
      },
      "t_array(t_uint256)44_storage": {
        "base": "t_uint256",
        "encoding": "inplace",
        "label": "uint256[44]",
        "numberOfBytes": "1408"
      },
      "t_array(t_uint256)47_storage": {
        "base": "t_uint256",
        "encoding": "inplace",
        "label": "uint256[47]",
        "numberOfBytes": "1504"
      },
      "t_array(t_uint256)49_storage": {
        "base": "t_uint256",
        "encoding": "inplace",
        "label": "uint256[49]",
        "numberOfBytes": "1568"
      },
      "t_array(t_uint256)50_storage": {
        "base": "t_uint256",
        "encoding": "inplace",
        "label": "uint256[50]",
        "numberOfBytes": "1600"
      },
      "t_bool": {
        "encoding": "inplace",
        "label": "bool",
        "numberOfBytes": "1"
      },
      "t_bytes32": {
        "encoding": "inplace",
        "label": "bytes32",
        "numberOfBytes": "32"
      },
      "t_int256": {
        "encoding": "inplace",
        "label": "int256",
        "numberOfBytes": "32"
      },
      "t_mapping(t_address,t_bool)": {
        "encoding": "mapping",
        "key": "t_address",
        "label": "mapping(address => bool)",
        "numberOfBytes": "32",
        "value": "t_bool"
      },
      "t_mapping(t_address,t_int256)": {
        "encoding": "mapping",
        "key": "t_address",
        "label": "mapping(address => int256)",
        "numberOfBytes": "32",
        "value": "t_int256"
      },
      "t_mapping(t_address,t_mapping(t_address,t_bool))": {
        "encoding": "mapping",
        "key": "t_address",
        "label": "mapping(address => mapping(address => bool))",
        "numberOfBytes": "32",
        "value": "t_mapping(t_address,t_bool)"
      },
      "t_mapping(t_address,t_uint256)": {
        "encoding": "mapping",
        "key": "t_address",
        "label": "mapping(address => uint256)",
        "numberOfBytes": "32",
        "value": "t_uint256"
      },
      "t_mapping(t_bytes32,t_struct(RoleData)43_storage)": {
        "encoding": "mapping",
        "key": "t_bytes32",
        "label": "mapping(bytes32 => struct AccessControlUpgradeable.RoleData)",
        "numberOfBytes": "32",
        "value": "t_struct(RoleData)43_storage"
      },
      "t_mapping(t_uint256,t_address)": {
        "encoding": "mapping",
        "key": "t_uint256",
        "label": "mapping(uint256 => address)",
        "numberOfBytes": "32",
        "value": "t_address"
      },
      "t_mapping(t_uint256,t_mapping(t_address,t_int256))": {
        "encoding": "mapping",
        "key": "t_uint256",
        "label": "mapping(uint256 => mapping(address => int256))",
        "numberOfBytes": "32",
        "value": "t_mapping(t_address,t_int256)"
      },
      "t_mapping(t_uint256,t_mapping(t_address,t_uint256))": {
        "encoding": "mapping",
        "key": "t_uint256",
        "label": "mapping(uint256 => mapping(address => uint256))",
        "numberOfBytes": "32",
        "value": "t_mapping(t_address,t_uint256)"
      },
      "t_mapping(t_uint256,t_struct(DividendTokenData)13346_storage)": {
        "encoding": "mapping",
        "key": "t_uint256",
        "label": "mapping(uint256 => struct ERC1155DividendToken.DividendTokenData)",
        "numberOfBytes": "32",
        "value": "t_struct(DividendTokenData)13346_storage"
      },
      "t_mapping(t_uint256,t_uint256)": {
        "encoding": "mapping",
        "key": "t_uint256",
        "label": "mapping(uint256 => uint256)",
        "numberOfBytes": "32",
        "value": "t_uint256"
      },
      "t_string_storage": {
        "encoding": "bytes",
        "label": "string",
        "numberOfBytes": "32"
      },
      "t_struct(DividendTokenData)13346_storage": {
        "encoding": "inplace",
        "label": "struct ERC1155DividendToken.DividendTokenData",
        "members": [
          {
            "astId": 13329,
            "contract": "contracts/tokens/FundingMultitoken.sol:FundingMultitoken",
            "label": "dividendToken",
            "offset": 0,
            "slot": "0",
            "type": "t_address"
          },
          {
            "astId": 13333,
            "contract": "contracts/tokens/FundingMultitoken.sol:FundingMultitoken",
            "label": "magnifiedDividendPerShare",
            "offset": 0,
            "slot": "1",
            "type": "t_mapping(t_uint256,t_uint256)"
          },
          {
            "astId": 13339,
            "contract": "contracts/tokens/FundingMultitoken.sol:FundingMultitoken",
            "label": "magnifiedDividendCorrections",
            "offset": 0,
            "slot": "2",
            "type": "t_mapping(t_uint256,t_mapping(t_address,t_int256))"
          },
          {
            "astId": 13345,
            "contract": "contracts/tokens/FundingMultitoken.sol:FundingMultitoken",
            "label": "withdrawnDividends",
            "offset": 0,
            "slot": "3",
            "type": "t_mapping(t_uint256,t_mapping(t_address,t_uint256))"
          }
        ],
        "numberOfBytes": "128"
      },
      "t_struct(RoleData)43_storage": {
        "encoding": "inplace",
        "label": "struct AccessControlUpgradeable.RoleData",
        "members": [
          {
            "astId": 40,
            "contract": "contracts/tokens/FundingMultitoken.sol:FundingMultitoken",
            "label": "members",
            "offset": 0,
            "slot": "0",
            "type": "t_mapping(t_address,t_bool)"
          },
          {
            "astId": 42,
            "contract": "contracts/tokens/FundingMultitoken.sol:FundingMultitoken",
            "label": "adminRole",
            "offset": 0,
            "slot": "1",
            "type": "t_bytes32"
          }
        ],
        "numberOfBytes": "64"
      },
      "t_uint256": {
        "encoding": "inplace",
        "label": "uint256",
        "numberOfBytes": "32"
      },
      "t_uint8": {
        "encoding": "inplace",
        "label": "uint8",
        "numberOfBytes": "1"
      }
    }
  }
}