{
  "address": "0x1bbf7d36854cdeA23E95645aACE7927AC5762529",
  "abi": [
    {
      "inputs": [
        {
          "internalType": "uint256",
          "name": "prod1",
          "type": "uint256"
        }
      ],
      "name": "PRBMath__MulDivFixedPointOverflow",
      "type": "error"
    },
    {
      "inputs": [
        {
          "internalType": "uint256",
          "name": "prod1",
          "type": "uint256"
        },
        {
          "internalType": "uint256",
          "name": "denominator",
          "type": "uint256"
        }
      ],
      "name": "PRBMath__MulDivOverflow",
      "type": "error"
    },
    {
      "anonymous": false,
      "inputs": [
        {
          "indexed": true,
          "internalType": "address",
          "name": "sender",
          "type": "address"
        },
        {
          "indexed": true,
          "internalType": "string",
          "name": "paramName",
          "type": "string"
        },
        {
          "indexed": false,
          "internalType": "address",
          "name": "newValue",
          "type": "address"
        }
      ],
      "name": "ESetParamAddress",
      "type": "event"
    },
    {
      "anonymous": false,
      "inputs": [
        {
          "indexed": true,
          "internalType": "address",
          "name": "previousOwner",
          "type": "address"
        },
        {
          "indexed": true,
          "internalType": "address",
          "name": "newOwner",
          "type": "address"
        }
      ],
      "name": "OwnershipTransferred",
      "type": "event"
    },
    {
      "anonymous": false,
      "inputs": [
        {
          "indexed": true,
          "internalType": "bytes32",
          "name": "role",
          "type": "bytes32"
        },
        {
          "indexed": true,
          "internalType": "bytes32",
          "name": "previousAdminRole",
          "type": "bytes32"
        },
        {
          "indexed": true,
          "internalType": "bytes32",
          "name": "newAdminRole",
          "type": "bytes32"
        }
      ],
      "name": "RoleAdminChanged",
      "type": "event"
    },
    {
      "anonymous": false,
      "inputs": [
        {
          "indexed": true,
          "internalType": "bytes32",
          "name": "role",
          "type": "bytes32"
        },
        {
          "indexed": true,
          "internalType": "address",
          "name": "account",
          "type": "address"
        },
        {
          "indexed": true,
          "internalType": "address",
          "name": "sender",
          "type": "address"
        }
      ],
      "name": "RoleGranted",
      "type": "event"
    },
    {
      "anonymous": false,
      "inputs": [
        {
          "indexed": true,
          "internalType": "bytes32",
          "name": "role",
          "type": "bytes32"
        },
        {
          "indexed": true,
          "internalType": "address",
          "name": "account",
          "type": "address"
        },
        {
          "indexed": true,
          "internalType": "address",
          "name": "sender",
          "type": "address"
        }
      ],
      "name": "RoleRevoked",
      "type": "event"
    },
    {
      "inputs": [],
      "name": "DEFAULT_ADMIN_ROLE",
      "outputs": [
        {
          "internalType": "bytes32",
          "name": "",
          "type": "bytes32"
        }
      ],
      "stateMutability": "view",
      "type": "function"
    },
    {
      "inputs": [],
      "name": "claimRewards",
      "outputs": [],
      "stateMutability": "nonpayable",
      "type": "function"
    },
    {
      "inputs": [
        {
          "internalType": "uint256",
          "name": "amount",
          "type": "uint256"
        }
      ],
      "name": "deposit",
      "outputs": [],
      "stateMutability": "nonpayable",
      "type": "function"
    },
    {
      "inputs": [
        {
          "internalType": "bytes32",
          "name": "role",
          "type": "bytes32"
        }
      ],
      "name": "getRoleAdmin",
      "outputs": [
        {
          "internalType": "bytes32",
          "name": "",
          "type": "bytes32"
        }
      ],
      "stateMutability": "view",
      "type": "function"
    },
    {
      "inputs": [
        {
          "internalType": "bytes32",
          "name": "role",
          "type": "bytes32"
        },
        {
          "internalType": "address",
          "name": "account",
          "type": "address"
        }
      ],
      "name": "grantRole",
      "outputs": [],
      "stateMutability": "nonpayable",
      "type": "function"
    },
    {
      "inputs": [
        {
          "internalType": "bytes32",
          "name": "role",
          "type": "bytes32"
        },
        {
          "internalType": "address",
          "name": "account",
          "type": "address"
        }
      ],
      "name": "hasRole",
      "outputs": [
        {
          "internalType": "bool",
          "name": "",
          "type": "bool"
        }
      ],
      "stateMutability": "view",
      "type": "function"
    },
    {
      "inputs": [],
      "name": "incomeIndex",
      "outputs": [
        {
          "internalType": "uint256",
          "name": "index",
          "type": "uint256"
        }
      ],
      "stateMutability": "nonpayable",
      "type": "function"
    },
    {
      "inputs": [
        {
          "internalType": "address",
          "name": "_mobiusSwap",
          "type": "address"
        },
        {
          "internalType": "address",
          "name": "_rescuer",
          "type": "address"
        },
        {
          "internalType": "address",
          "name": "_stablecoin",
          "type": "address"
        },
        {
          "internalType": "uint256",
          "name": "_swapLength",
          "type": "uint256"
        }
      ],
      "name": "initialize",
      "outputs": [],
      "stateMutability": "nonpayable",
      "type": "function"
    },
    {
      "inputs": [],
      "name": "lpToken",
      "outputs": [
        {
          "internalType": "contract ERC20",
          "name": "",
          "type": "address"
        }
      ],
      "stateMutability": "view",
      "type": "function"
    },
    {
      "inputs": [],
      "name": "mobiusSwap",
      "outputs": [
        {
          "internalType": "contract ISwap",
          "name": "",
          "type": "address"
        }
      ],
      "stateMutability": "view",
      "type": "function"
    },
    {
      "inputs": [],
      "name": "owner",
      "outputs": [
        {
          "internalType": "address",
          "name": "",
          "type": "address"
        }
      ],
      "stateMutability": "view",
      "type": "function"
    },
    {
      "inputs": [],
      "name": "renounceOwnership",
      "outputs": [],
      "stateMutability": "nonpayable",
      "type": "function"
    },
    {
      "inputs": [
        {
          "internalType": "bytes32",
          "name": "role",
          "type": "bytes32"
        },
        {
          "internalType": "address",
          "name": "account",
          "type": "address"
        }
      ],
      "name": "renounceRole",
      "outputs": [],
      "stateMutability": "nonpayable",
      "type": "function"
    },
    {
      "inputs": [
        {
          "internalType": "address",
          "name": "token",
          "type": "address"
        },
        {
          "internalType": "address",
          "name": "target",
          "type": "address"
        }
      ],
      "name": "rescue",
      "outputs": [],
      "stateMutability": "nonpayable",
      "type": "function"
    },
    {
      "inputs": [
        {
          "internalType": "bytes32",
          "name": "role",
          "type": "bytes32"
        },
        {
          "internalType": "address",
          "name": "account",
          "type": "address"
        }
      ],
      "name": "revokeRole",
      "outputs": [],
      "stateMutability": "nonpayable",
      "type": "function"
    },
    {
      "inputs": [
        {
          "internalType": "address",
          "name": "newValue",
          "type": "address"
        }
      ],
      "name": "setRewards",
      "outputs": [],
      "stateMutability": "nonpayable",
      "type": "function"
    },
    {
      "inputs": [],
      "name": "stablecoin",
      "outputs": [
        {
          "internalType": "contract ERC20",
          "name": "",
          "type": "address"
        }
      ],
      "stateMutability": "view",
      "type": "function"
    },
    {
      "inputs": [
        {
          "internalType": "bytes4",
          "name": "interfaceId",
          "type": "bytes4"
        }
      ],
      "name": "supportsInterface",
      "outputs": [
        {
          "internalType": "bool",
          "name": "",
          "type": "bool"
        }
      ],
      "stateMutability": "view",
      "type": "function"
    },
    {
      "inputs": [],
      "name": "swapLength",
      "outputs": [
        {
          "internalType": "uint256",
          "name": "",
          "type": "uint256"
        }
      ],
      "stateMutability": "view",
      "type": "function"
    },
    {
      "inputs": [],
      "name": "tokenIndex",
      "outputs": [
        {
          "internalType": "uint8",
          "name": "",
          "type": "uint8"
        }
      ],
      "stateMutability": "view",
      "type": "function"
    },
    {
      "inputs": [
        {
          "internalType": "uint256",
          "name": "currentIncomeIndex",
          "type": "uint256"
        }
      ],
      "name": "totalValue",
      "outputs": [
        {
          "internalType": "uint256",
          "name": "",
          "type": "uint256"
        }
      ],
      "stateMutability": "view",
      "type": "function"
    },
    {
      "inputs": [],
      "name": "totalValue",
      "outputs": [
        {
          "internalType": "uint256",
          "name": "",
          "type": "uint256"
        }
      ],
      "stateMutability": "nonpayable",
      "type": "function"
    },
    {
      "inputs": [
        {
          "internalType": "address",
          "name": "newOwner",
          "type": "address"
        }
      ],
      "name": "transferOwnership",
      "outputs": [],
      "stateMutability": "nonpayable",
      "type": "function"
    },
    {
      "inputs": [
        {
          "internalType": "uint256",
          "name": "amount",
          "type": "uint256"
        }
      ],
      "name": "withdraw",
      "outputs": [
        {
          "internalType": "uint256",
          "name": "amountWithdrawn",
          "type": "uint256"
        }
      ],
      "stateMutability": "nonpayable",
      "type": "function"
    }
  ],
  "transactionHash": "0x99d03c9f5f52cbc222d793d05bd7844aa55c844da2c40b3c23ec343b2652fba2",
  "args": [],
  "solcInputHash": "6828678cf7019b5d316d664003754973",
  "bytecode": "0x608060405234801561001057600080fd5b50611e4e806100206000396000f3fe608060405234801561001057600080fd5b50600436106101585760003560e01c80638da5cb5b116100c3578063d4c3eea01161007c578063d4c3eea0146102c0578063d547741f146102c8578063d55f9273146102db578063e9cbd82214610301578063ec38a86214610314578063f2fde38b1461032757600080fd5b80638da5cb5b1461025b57806391d148541461026c578063a217fddf1461027f578063b6b55f2514610287578063b7d54a231461029a578063cf756fdf146102ad57600080fd5b8063372500ab11610115578063372500ab146101e45780634fdf5d1d146101f9578063579f07b01461020c5780635fcbd2851461021f578063607429481461024a578063715018a61461025357600080fd5b806301ffc9a71461015d57806321c2612014610185578063248a9ca31461019b5780632e1a7d4d146101be5780632f2ff15d146101d157806336568abe146101e6575b600080fd5b61017061016b366004611b7e565b61033a565b60405190151581526020015b60405180910390f35b61018d610371565b60405190815260200161017c565b61018d6101a9366004611b42565b600090815260c9602052604090206001015490565b61018d6101cc366004611b42565b610380565b6101e46101df366004611b5a565b610580565b005b6101e46101f4366004611b5a565b6105ab565b6101e4610207366004611a9a565b61062b565b61018d61021a366004611b42565b6106c5565b60fc54610232906001600160a01b031681565b6040516001600160a01b03909116815260200161017c565b61018d60fe5481565b6101e46106d0565b6065546001600160a01b0316610232565b61017061027a366004611b5a565b610704565b61018d600081565b6101e4610295366004611b42565b61072f565b60fd54610232906001600160a01b031681565b6101e46102bb366004611ad2565b6108fc565b61018d610b5f565b6101e46102d6366004611b5a565b610b71565b60fd546102ef90600160a01b900460ff1681565b60405160ff909116815260200161017c565b60fb54610232906001600160a01b031681565b6101e4610322366004611a62565b610b97565b6101e4610335366004611a62565b610bc4565b60006001600160e01b03198216637965db0b60e01b148061036b57506301ffc9a760e01b6001600160e01b03198316145b92915050565b600061037b610c5c565b905090565b6065546000906001600160a01b031633146103b65760405162461bcd60e51b81526004016103ad90611d3e565b60405180910390fd5b600082116104025760405162461bcd60e51b815260206004820152601960248201527804d6f626975734d61726b65743a20616d6f756e74206973203603c1b60448201526064016103ad565b60fd546040805163712d52fd60e11b815290516000926001600160a01b03169163e25aa5fa916004808301926020929190829003018186803b15801561044757600080fd5b505afa15801561045b573d6000803e3d6000fd5b505050506040513d601f19601f8201168201806040525081019061047f9190611ba6565b9050600061048d8483610d2e565b60fd5460fc549192506104ad916001600160a01b03908116911683610d4a565b60fd546001600160a01b03811690633e3a1560908390600160a01b900460ff1660006104da426001611d73565b6040516001600160e01b031960e087901b168152600481019490945260ff909216602484015260448301526064820152608401602060405180830381600087803b15801561052757600080fd5b505af115801561053b573d6000803e3d6000fd5b505050506040513d601f19601f8201168201806040525081019061055f9190611ba6565b60fb54909350610579906001600160a01b03163385610e44565b5050919050565b600082815260c9602052604090206001015461059c8133610e74565b6105a68383610ed8565b505050565b6001600160a01b038116331461061b5760405162461bcd60e51b815260206004820152602f60248201527f416363657373436f6e74726f6c3a2063616e206f6e6c792072656e6f756e636560448201526e103937b632b9903337b91039b2b63360891b60648201526084016103ad565b6106258282610f5e565b5050565b565b6106358282610fc5565b6040516370a0823160e01b815230600482015282906105a69083906001600160a01b038416906370a082319060240160206040518083038186803b15801561067c57600080fd5b505afa158015610690573d6000803e3d6000fd5b505050506040513d601f19601f820116820180604052508101906106b49190611ba6565b6001600160a01b0384169190610e44565b600061036b82611026565b6065546001600160a01b031633146106fa5760405162461bcd60e51b81526004016103ad90611d3e565b61062960006110b4565b600091825260c9602090815260408084206001600160a01b0393909316845291905290205460ff1690565b6065546001600160a01b031633146107595760405162461bcd60e51b81526004016103ad90611d3e565b600081116107a55760405162461bcd60e51b815260206004820152601960248201527804d6f626975734d61726b65743a20616d6f756e74206973203603c1b60448201526064016103ad565b60fb546107bd906001600160a01b0316333084611106565b60fd5460fb546107da916001600160a01b03918216911683610d4a565b600060fe5467ffffffffffffffff81111561080557634e487b7160e01b600052604160045260246000fd5b60405190808252806020026020018201604052801561082e578160200160208202803683370190505b5060fd54815191925083918391600160a01b900460ff1690811061086257634e487b7160e01b600052603260045260246000fd5b602090810291909101015260fd546001600160a01b0316634d49e87d82600061088c426001611d73565b6040518463ffffffff1660e01b81526004016108aa93929190611c70565b602060405180830381600087803b1580156108c457600080fd5b505af11580156108d8573d6000803e3d6000fd5b505050506040513d601f19601f820116820180604052508101906105a69190611ba6565b603254610100900460ff1680610915575060325460ff16155b6109315760405162461bcd60e51b81526004016103ad90611cf0565b603254610100900460ff16158015610953576032805461ffff19166101011790555b61095c8461113e565b6001600160a01b0385163b1515801561097e57506001600160a01b0383163b15155b6109e35760405162461bcd60e51b815260206004820152603060248201527f4d6f626975734d61726b65743a20416e20696e7075742061646472657373206960448201526f1cc81b9bdd08184818dbdb9d1c9858dd60821b60648201526084016103ad565b60fd80546001600160a01b038781166001600160a01b0319928316811790935560fb80549187169190921681179091556040516319b02f4960e21b815260048101919091526366c0bd249060240160206040518083038186803b158015610a4957600080fd5b505afa158015610a5d573d6000803e3d6000fd5b505050506040513d601f19601f82011682018060405250810190610a819190611bbe565b60fd60146101000a81548160ff021916908360ff16021790555060fd60009054906101000a90046001600160a01b03166001600160a01b0316638214f5a46040518163ffffffff1660e01b815260040160206040518083038186803b158015610ae957600080fd5b505afa158015610afd573d6000803e3d6000fd5b505050506040513d601f19601f82011682018060405250810190610b219190611a7e565b60fc80546001600160a01b0319166001600160a01b039290921691909117905560fe8290558015610b58576032805461ff00191690555b5050505050565b600061037b610b6c610c5c565b611026565b600082815260c96020526040902060010154610b8d8133610e74565b6105a68383610f5e565b6065546001600160a01b03163314610bc15760405162461bcd60e51b81526004016103ad90611d3e565b50565b6065546001600160a01b03163314610bee5760405162461bcd60e51b81526004016103ad90611d3e565b6001600160a01b038116610c535760405162461bcd60e51b815260206004820152602660248201527f4f776e61626c653a206e6577206f776e657220697320746865207a65726f206160448201526564647265737360d01b60648201526084016103ad565b610bc1816110b4565b60fd546040805163712d52fd60e11b815290516000926001600160a01b03169163e25aa5fa916004808301926020929190829003018186803b158015610ca157600080fd5b505afa158015610cb5573d6000803e3d6000fd5b505050506040513d601f19601f82011682018060405250810190610cd99190611ba6565b905060008111610d2b5760405162461bcd60e51b815260206004820152601760248201527f4d6f626975734d61726b65743a204241445f494e44455800000000000000000060448201526064016103ad565b90565b6000610d4383670de0b6b3a76400008461120e565b9392505050565b604051636eb1769f60e11b81523060048201526001600160a01b038381166024830152600091839186169063dd62ed3e9060440160206040518083038186803b158015610d9657600080fd5b505afa158015610daa573d6000803e3d6000fd5b505050506040513d601f19601f82011682018060405250810190610dce9190611ba6565b610dd89190611d73565b6040516001600160a01b038516602482015260448101829052909150610e3e90859063095ea7b360e01b906064015b60408051601f198184030181529190526020810180516001600160e01b03166001600160e01b0319909316929092179091526112e9565b50505050565b6040516001600160a01b0383166024820152604481018290526105a690849063a9059cbb60e01b90606401610e07565b610e7e8282610704565b61062557610e96816001600160a01b031660146113bb565b610ea18360206113bb565b604051602001610eb2929190611bfb565b60408051601f198184030181529082905262461bcd60e51b82526103ad91600401611cbd565b610ee28282610704565b61062557600082815260c9602090815260408083206001600160a01b03851684529091529020805460ff19166001179055610f1a3390565b6001600160a01b0316816001600160a01b0316837f2f8788117e7eff1d82e926ec794901d17c78024a50270940304540a733656f0d60405160405180910390a45050565b610f688282610704565b1561062557600082815260c9602090815260408083206001600160a01b0385168085529252808320805460ff1916905551339285917ff6391f5c32d9c69d2a47ea670b442974b53935d1edc7fd64eb21e047a839171b9190a45050565b610fcf828261159d565b60fc546001600160a01b03838116911614156106255760405162461bcd60e51b8152602060048201526016602482015275135bd89a5d5cd3585c9ad95d0e881b9bc81cdd19585b60521b60448201526064016103ad565b600061036b611033610c5c565b60fc546040516370a0823160e01b81523060048201526001600160a01b03909116906370a082319060240160206040518083038186803b15801561107657600080fd5b505afa15801561108a573d6000803e3d6000fd5b505050506040513d601f19601f820116820180604052508101906110ae9190611ba6565b90611613565b606580546001600160a01b038381166001600160a01b0319831681179093556040519116919082907f8be0079c531659141344cd1fd0a4f28419497f9722a3daafe3b4186f6b6457e090600090a35050565b6040516001600160a01b0380851660248301528316604482015260648101829052610e3e9085906323b872dd60e01b90608401610e07565b603254610100900460ff1680611157575060325460ff16155b6111735760405162461bcd60e51b81526004016103ad90611cf0565b603254610100900460ff16158015611195576032805461ffff19166101011790555b61119d61161f565b6111a561169a565b6111cf7fcf6f9f892731e14b8859835f2ff35575f447fb501f46243c4eb8bac19e31a05083611709565b6111f97fcf6f9f892731e14b8859835f2ff35575f447fb501f46243c4eb8bac19e31a05080611713565b8015610625576032805461ff00191690555050565b6000808060001985870985870292508281108382030391505080600014156112575783828161124d57634e487b7160e01b600052601260045260246000fd5b0492505050610d43565b83811061128157604051631dcf306360e21b815260048101829052602481018590526044016103ad565b600084868809600260036001881981018916988990049182028318808302840302808302840302808302840302808302840302808302840302918202909203026000889003889004909101858311909403939093029303949094049190911702949350505050565b600061133e826040518060400160405280602081526020017f5361666545524332303a206c6f772d6c6576656c2063616c6c206661696c6564815250856001600160a01b031661175e9092919063ffffffff16565b8051909150156105a6578080602001905181019061135c9190611b22565b6105a65760405162461bcd60e51b815260206004820152602a60248201527f5361666545524332303a204552433230206f7065726174696f6e20646964206e6044820152691bdd081cdd58d8d9595960b21b60648201526084016103ad565b606060006113ca836002611d8b565b6113d5906002611d73565b67ffffffffffffffff8111156113fb57634e487b7160e01b600052604160045260246000fd5b6040519080825280601f01601f191660200182016040528015611425576020820181803683370190505b509050600360fc1b8160008151811061144e57634e487b7160e01b600052603260045260246000fd5b60200101906001600160f81b031916908160001a905350600f60fb1b8160018151811061148b57634e487b7160e01b600052603260045260246000fd5b60200101906001600160f81b031916908160001a90535060006114af846002611d8b565b6114ba906001611d73565b90505b600181111561154e576f181899199a1a9b1b9c1cb0b131b232b360811b85600f16601081106114fc57634e487b7160e01b600052603260045260246000fd5b1a60f81b82828151811061152057634e487b7160e01b600052603260045260246000fd5b60200101906001600160f81b031916908160001a90535060049490941c9361154781611dd6565b90506114bd565b508315610d435760405162461bcd60e51b815260206004820181905260248201527f537472696e67733a20686578206c656e67746820696e73756666696369656e7460448201526064016103ad565b6115c77fcf6f9f892731e14b8859835f2ff35575f447fb501f46243c4eb8bac19e31a05033610704565b6106255760405162461bcd60e51b815260206004820152601860248201527f4d6f6e65794d61726b65743a206e6f742072657363756572000000000000000060448201526064016103ad565b6000610d438383611775565b603254610100900460ff1680611638575060325460ff16155b6116545760405162461bcd60e51b81526004016103ad90611cf0565b603254610100900460ff16158015611676576032805461ffff19166101011790555b61167e611837565b6116866118a1565b8015610bc1576032805461ff001916905550565b603254610100900460ff16806116b3575060325460ff16155b6116cf5760405162461bcd60e51b81526004016103ad90611cf0565b603254610100900460ff161580156116f1576032805461ffff19166101011790555b6116f9611837565b611701611837565b611686611837565b6106258282610ed8565b600082815260c96020526040808220600101805490849055905190918391839186917fbd79b86ffe0ab8e8776151514217cd7cacd52c909f66475c3af44e129f0b00ff9190a4505050565b606061176d8484600085611901565b949350505050565b60008080600019848609848602925082811083820303915050670de0b6b3a764000081106117b95760405163698d9a0160e11b8152600481018290526024016103ad565b600080670de0b6b3a76400008688099150506706f05b59d3b1ffff8111826117f35780670de0b6b3a764000085040194505050505061036b565b620400008285030493909111909103600160ee1b02919091177faccb18165bd6fe31ae1cf318dc5b51eee0e1ba569b88cd74c1773b91fac106690201905092915050565b603254610100900460ff1680611850575060325460ff16155b61186c5760405162461bcd60e51b81526004016103ad90611cf0565b603254610100900460ff16158015611686576032805461ffff19166101011790558015610bc1576032805461ff001916905550565b603254610100900460ff16806118ba575060325460ff16155b6118d65760405162461bcd60e51b81526004016103ad90611cf0565b603254610100900460ff161580156118f8576032805461ffff19166101011790555b611686336110b4565b6060824710156119625760405162461bcd60e51b815260206004820152602660248201527f416464726573733a20696e73756666696369656e742062616c616e636520666f6044820152651c8818d85b1b60d21b60648201526084016103ad565b843b6119b05760405162461bcd60e51b815260206004820152601d60248201527f416464726573733a2063616c6c20746f206e6f6e2d636f6e747261637400000060448201526064016103ad565b600080866001600160a01b031685876040516119cc9190611bdf565b60006040518083038185875af1925050503d8060008114611a09576040519150601f19603f3d011682016040523d82523d6000602084013e611a0e565b606091505b5091509150611a1e828286611a29565b979650505050505050565b60608315611a38575081610d43565b825115611a485782518084602001fd5b8160405162461bcd60e51b81526004016103ad9190611cbd565b600060208284031215611a73578081fd5b8135610d4381611e03565b600060208284031215611a8f578081fd5b8151610d4381611e03565b60008060408385031215611aac578081fd5b8235611ab781611e03565b91506020830135611ac781611e03565b809150509250929050565b60008060008060808587031215611ae7578182fd5b8435611af281611e03565b93506020850135611b0281611e03565b92506040850135611b1281611e03565b9396929550929360600135925050565b600060208284031215611b33578081fd5b81518015158114610d43578182fd5b600060208284031215611b53578081fd5b5035919050565b60008060408385031215611b6c578182fd5b823591506020830135611ac781611e03565b600060208284031215611b8f578081fd5b81356001600160e01b031981168114610d43578182fd5b600060208284031215611bb7578081fd5b5051919050565b600060208284031215611bcf578081fd5b815160ff81168114610d43578182fd5b60008251611bf1818460208701611daa565b9190910192915050565b7f416363657373436f6e74726f6c3a206163636f756e7420000000000000000000815260008351611c33816017850160208801611daa565b7001034b99036b4b9b9b4b733903937b6329607d1b6017918401918201528351611c64816028840160208801611daa565b01602801949350505050565b606080825284519082018190526000906020906080840190828801845b82811015611ca957815184529284019290840190600101611c8d565b505050908301949094525060400152919050565b6020815260008251806020840152611cdc816040850160208701611daa565b601f01601f19169190910160400192915050565b6020808252602e908201527f496e697469616c697a61626c653a20636f6e747261637420697320616c72656160408201526d191e481a5b9a5d1a585b1a5e995960921b606082015260800190565b6020808252818101527f4f776e61626c653a2063616c6c6572206973206e6f7420746865206f776e6572604082015260600190565b60008219821115611d8657611d86611ded565b500190565b6000816000190483118215151615611da557611da5611ded565b500290565b60005b83811015611dc5578181015183820152602001611dad565b83811115610e3e5750506000910152565b600081611de557611de5611ded565b506000190190565b634e487b7160e01b600052601160045260246000fd5b6001600160a01b0381168114610bc157600080fdfea2646970667358221220231fb4184c24b8a6d02843165ade2733d2315e965b0000652f2f34f4088312c064736f6c63430008040033",
  "devdoc": {
    "kind": "dev",
    "methods": {
      "getRoleAdmin(bytes32)": {
        "details": "Returns the admin role that controls `role`. See {grantRole} and {revokeRole}. To change a role's admin, use {_setRoleAdmin}."
      },
      "grantRole(bytes32,address)": {
        "details": "Grants `role` to `account`. If `account` had not been already granted `role`, emits a {RoleGranted} event. Requirements: - the caller must have ``role``'s admin role."
      },
      "hasRole(bytes32,address)": {
        "details": "Returns `true` if `account` has been granted `role`."
      },
      "owner()": {
        "details": "Returns the address of the current owner."
      },
      "renounceOwnership()": {
        "details": "Leaves the contract without owner. It will not be possible to call `onlyOwner` functions anymore. Can only be called by the current owner. NOTE: Renouncing ownership will leave the contract without an owner, thereby removing any functionality that is only available to the owner."
      },
      "renounceRole(bytes32,address)": {
        "details": "Revokes `role` from the calling account. Roles are often managed via {grantRole} and {revokeRole}: this function's purpose is to provide a mechanism for accounts to lose their privileges if they are compromised (such as when a trusted device is misplaced). If the calling account had been granted `role`, emits a {RoleRevoked} event. Requirements: - the caller must be `account`."
      },
      "rescue(address,address)": {
        "details": "Need to implement {_authorizeRescue} to do access-control for this function.",
        "params": {
          "target": "The address to send the tokens to",
          "token": "The ERC20 token to rescue"
        }
      },
      "revokeRole(bytes32,address)": {
        "details": "Revokes `role` from `account`. If `account` had been granted `role`, emits a {RoleRevoked} event. Requirements: - the caller must have ``role``'s admin role."
      },
      "supportsInterface(bytes4)": {
        "details": "See {IERC165-supportsInterface}."
      },
      "transferOwnership(address)": {
        "details": "Transfers ownership of the contract to a new account (`newOwner`). Can only be called by the current owner."
      }
    },
    "version": 1
  },
  "userdoc": {
    "errors": {
      "PRBMath__MulDivFixedPointOverflow(uint256)": [
        {
          "notice": "Emitted when the result overflows uint256."
        }
      ],
      "PRBMath__MulDivOverflow(uint256,uint256)": [
        {
          "notice": "Emitted when the result overflows uint256."
        }
      ]
    },
    "kind": "user",
    "methods": {
      "incomeIndex()": {
        "notice": "Used for calculating the interest generated (e.g. cDai's price for the Compound market)"
      },
      "rescue(address,address)": {
        "notice": "Rescues ERC20 tokens sent to the contract in error."
      },
      "totalValue()": {
        "notice": "The total value locked in the money market, in terms of the underlying stablecoin"
      },
      "totalValue(uint256)": {
        "notice": "The total value locked in the money market, in terms of the underlying stablecoin"
      }
    },
    "version": 1
  },
  "storageLayout": {
    "storage": [
      {
        "astId": 16082,
        "contract": "contracts/moneymarkets/mobius/MobiusMarket.sol:MobiusMarket",
        "label": "__gap",
        "offset": 0,
        "slot": "0",
        "type": "t_array(t_uint256)50_storage"
      },
      {
        "astId": 618,
        "contract": "contracts/moneymarkets/mobius/MobiusMarket.sol:MobiusMarket",
        "label": "_initialized",
        "offset": 0,
        "slot": "50",
        "type": "t_bool"
      },
      {
        "astId": 621,
        "contract": "contracts/moneymarkets/mobius/MobiusMarket.sol:MobiusMarket",
        "label": "_initializing",
        "offset": 1,
        "slot": "50",
        "type": "t_bool"
      },
      {
        "astId": 3221,
        "contract": "contracts/moneymarkets/mobius/MobiusMarket.sol:MobiusMarket",
        "label": "__gap",
        "offset": 0,
        "slot": "51",
        "type": "t_array(t_uint256)50_storage"
      },
      {
        "astId": 418,
        "contract": "contracts/moneymarkets/mobius/MobiusMarket.sol:MobiusMarket",
        "label": "_owner",
        "offset": 0,
        "slot": "101",
        "type": "t_address"
      },
      {
        "astId": 531,
        "contract": "contracts/moneymarkets/mobius/MobiusMarket.sol:MobiusMarket",
        "label": "__gap",
        "offset": 0,
        "slot": "102",
        "type": "t_array(t_uint256)49_storage"
      },
      {
        "astId": 3581,
        "contract": "contracts/moneymarkets/mobius/MobiusMarket.sol:MobiusMarket",
        "label": "__gap",
        "offset": 0,
        "slot": "151",
        "type": "t_array(t_uint256)50_storage"
      },
      {
        "astId": 48,
        "contract": "contracts/moneymarkets/mobius/MobiusMarket.sol:MobiusMarket",
        "label": "_roles",
        "offset": 0,
        "slot": "201",
        "type": "t_mapping(t_bytes32,t_struct(RoleData)43_storage)"
      },
      {
        "astId": 333,
        "contract": "contracts/moneymarkets/mobius/MobiusMarket.sol:MobiusMarket",
        "label": "__gap",
        "offset": 0,
        "slot": "202",
        "type": "t_array(t_uint256)49_storage"
      },
      {
        "astId": 23041,
        "contract": "contracts/moneymarkets/mobius/MobiusMarket.sol:MobiusMarket",
        "label": "stablecoin",
        "offset": 0,
        "slot": "251",
        "type": "t_contract(ERC20)4880"
      },
      {
        "astId": 23044,
        "contract": "contracts/moneymarkets/mobius/MobiusMarket.sol:MobiusMarket",
        "label": "lpToken",
        "offset": 0,
        "slot": "252",
        "type": "t_contract(ERC20)4880"
      },
      {
        "astId": 23047,
        "contract": "contracts/moneymarkets/mobius/MobiusMarket.sol:MobiusMarket",
        "label": "mobiusSwap",
        "offset": 0,
        "slot": "253",
        "type": "t_contract(ISwap)23509"
      },
      {
        "astId": 23049,
        "contract": "contracts/moneymarkets/mobius/MobiusMarket.sol:MobiusMarket",
        "label": "tokenIndex",
        "offset": 20,
        "slot": "253",
        "type": "t_uint8"
      },
      {
        "astId": 23051,
        "contract": "contracts/moneymarkets/mobius/MobiusMarket.sol:MobiusMarket",
        "label": "swapLength",
        "offset": 0,
        "slot": "254",
        "type": "t_uint256"
      }
    ],
    "types": {
      "t_address": {
        "encoding": "inplace",
        "label": "address",
        "numberOfBytes": "20"
      },
      "t_array(t_uint256)49_storage": {
        "base": "t_uint256",
        "encoding": "inplace",
        "label": "uint256[49]",
        "numberOfBytes": "1568"
      },
      "t_array(t_uint256)50_storage": {
        "base": "t_uint256",
        "encoding": "inplace",
        "label": "uint256[50]",
        "numberOfBytes": "1600"
      },
      "t_bool": {
        "encoding": "inplace",
        "label": "bool",
        "numberOfBytes": "1"
      },
      "t_bytes32": {
        "encoding": "inplace",
        "label": "bytes32",
        "numberOfBytes": "32"
      },
      "t_contract(ERC20)4880": {
        "encoding": "inplace",
        "label": "contract ERC20",
        "numberOfBytes": "20"
      },
      "t_contract(ISwap)23509": {
        "encoding": "inplace",
        "label": "contract ISwap",
        "numberOfBytes": "20"
      },
      "t_mapping(t_address,t_bool)": {
        "encoding": "mapping",
        "key": "t_address",
        "label": "mapping(address => bool)",
        "numberOfBytes": "32",
        "value": "t_bool"
      },
      "t_mapping(t_bytes32,t_struct(RoleData)43_storage)": {
        "encoding": "mapping",
        "key": "t_bytes32",
        "label": "mapping(bytes32 => struct AccessControlUpgradeable.RoleData)",
        "numberOfBytes": "32",
        "value": "t_struct(RoleData)43_storage"
      },
      "t_struct(RoleData)43_storage": {
        "encoding": "inplace",
        "label": "struct AccessControlUpgradeable.RoleData",
        "members": [
          {
            "astId": 40,
            "contract": "contracts/moneymarkets/mobius/MobiusMarket.sol:MobiusMarket",
            "label": "members",
            "offset": 0,
            "slot": "0",
            "type": "t_mapping(t_address,t_bool)"
          },
          {
            "astId": 42,
            "contract": "contracts/moneymarkets/mobius/MobiusMarket.sol:MobiusMarket",
            "label": "adminRole",
            "offset": 0,
            "slot": "1",
            "type": "t_bytes32"
          }
        ],
        "numberOfBytes": "64"
      },
      "t_uint256": {
        "encoding": "inplace",
        "label": "uint256",
        "numberOfBytes": "32"
      },
      "t_uint8": {
        "encoding": "inplace",
        "label": "uint8",
        "numberOfBytes": "1"
      }
    }
  }
}